{
  "address": "0x63719eaB5801af2A91353f9d7526ad3b76b51a3A",
  "abi": [
    {
      "inputs": [
        {
          "internalType": "string",
          "name": "name",
          "type": "string"
        },
        {
          "internalType": "string",
          "name": "version",
          "type": "string"
        }
      ],
      "stateMutability": "nonpayable",
      "type": "constructor"
    },
    {
      "inputs": [
        {
          "internalType": "address",
          "name": "target",
          "type": "address"
        }
      ],
      "name": "AddressEmptyCode",
      "type": "error"
    },
    {
      "inputs": [],
      "name": "AlreadyGuardian",
      "type": "error"
    },
    {
      "inputs": [],
      "name": "CannotRemoveGuardian",
      "type": "error"
    },
    {
      "inputs": [],
      "name": "DuplicatedOrUnsortedGuardianSignatures",
      "type": "error"
    },
    {
      "inputs": [],
      "name": "ExecutionDiffersFromPending",
      "type": "error"
    },
    {
      "inputs": [],
      "name": "FailedCall",
      "type": "error"
    },
    {
      "inputs": [],
      "name": "GuardianNotFound",
      "type": "error"
    },
    {
      "inputs": [
        {
          "internalType": "uint256",
          "name": "balance",
          "type": "uint256"
        },
        {
          "internalType": "uint256",
          "name": "needed",
          "type": "uint256"
        }
      ],
      "name": "InsufficientBalance",
      "type": "error"
    },
    {
      "inputs": [
        {
          "internalType": "address",
          "name": "account",
          "type": "address"
        },
        {
          "internalType": "uint256",
          "name": "currentNonce",
          "type": "uint256"
        }
      ],
      "name": "InvalidAccountNonce",
      "type": "error"
    },
    {
      "inputs": [],
      "name": "InvalidGuardianLength",
      "type": "error"
    },
    {
      "inputs": [],
      "name": "InvalidGuardianSignature",
      "type": "error"
    },
    {
      "inputs": [],
      "name": "InvalidShortString",
      "type": "error"
    },
    {
      "inputs": [],
      "name": "InvalidThreshold",
      "type": "error"
    },
    {
      "inputs": [],
      "name": "InvalidTimelock",
      "type": "error"
    },
    {
      "inputs": [],
      "name": "RecoveryAlreadyStarted",
      "type": "error"
    },
    {
      "inputs": [],
      "name": "RecoveryNotReady",
      "type": "error"
    },
    {
      "inputs": [],
      "name": "RecoveryNotStarted",
      "type": "error"
    },
    {
      "inputs": [
        {
          "internalType": "string",
          "name": "str",
          "type": "string"
        }
      ],
      "name": "StringTooLong",
      "type": "error"
    },
    {
      "inputs": [],
      "name": "ThresholdNotMet",
      "type": "error"
    },
    {
      "inputs": [],
      "name": "TooManyGuardianSignatures",
      "type": "error"
    },
    {
      "inputs": [],
      "name": "TooManyGuardians",
      "type": "error"
    },
    {
      "anonymous": false,
      "inputs": [],
      "name": "EIP712DomainChanged",
      "type": "event"
    },
    {
      "anonymous": false,
      "inputs": [
        {
          "indexed": true,
          "internalType": "address",
          "name": "account",
          "type": "address"
        },
        {
          "indexed": false,
          "internalType": "address",
          "name": "guardian",
          "type": "address"
        }
      ],
      "name": "GuardianAdded",
      "type": "event"
    },
    {
      "anonymous": false,
      "inputs": [
        {
          "indexed": true,
          "internalType": "address",
          "name": "account",
          "type": "address"
        },
        {
          "indexed": false,
          "internalType": "address",
          "name": "guardian",
          "type": "address"
        }
      ],
      "name": "GuardianRemoved",
      "type": "event"
    },
    {
      "anonymous": false,
      "inputs": [
        {
          "indexed": true,
          "internalType": "address",
          "name": "account",
          "type": "address"
        },
        {
          "indexed": false,
          "internalType": "bytes",
          "name": "data",
          "type": "bytes"
        }
      ],
      "name": "ModuleInstalledReceived",
      "type": "event"
    },
    {
      "anonymous": false,
      "inputs": [
        {
          "indexed": true,
          "internalType": "address",
          "name": "account",
          "type": "address"
        },
        {
          "indexed": false,
          "internalType": "bytes",
          "name": "data",
          "type": "bytes"
        }
      ],
      "name": "ModuleUninstalledReceived",
      "type": "event"
    },
    {
      "anonymous": false,
      "inputs": [
        {
          "indexed": true,
          "internalType": "address",
          "name": "account",
          "type": "address"
        }
      ],
      "name": "RecoveryCancelled",
      "type": "event"
    },
    {
      "anonymous": false,
      "inputs": [
        {
          "indexed": true,
          "internalType": "address",
          "name": "account",
          "type": "address"
        }
      ],
      "name": "RecoveryExecuted",
      "type": "event"
    },
    {
      "anonymous": false,
      "inputs": [
        {
          "indexed": true,
          "internalType": "address",
          "name": "account",
          "type": "address"
        }
      ],
      "name": "RecoveryStarted",
      "type": "event"
    },
    {
      "anonymous": false,
      "inputs": [
        {
          "indexed": true,
          "internalType": "address",
          "name": "account",
          "type": "address"
        },
        {
          "indexed": false,
          "internalType": "uint256",
          "name": "threshold",
          "type": "uint256"
        }
      ],
      "name": "ThresholdChanged",
      "type": "event"
    },
    {
      "anonymous": false,
      "inputs": [
        {
          "indexed": true,
          "internalType": "address",
          "name": "account",
          "type": "address"
        },
        {
          "indexed": false,
          "internalType": "uint256",
          "name": "timelock",
          "type": "uint256"
        }
      ],
      "name": "TimelockChanged",
      "type": "event"
    },
    {
      "inputs": [
        {
          "internalType": "address",
          "name": "guardian",
          "type": "address"
        }
      ],
      "name": "addGuardian",
      "outputs": [],
      "stateMutability": "nonpayable",
      "type": "function"
    },
    {
      "inputs": [],
      "name": "cancelRecovery",
      "outputs": [],
      "stateMutability": "nonpayable",
      "type": "function"
    },
    {
      "inputs": [
        {
          "internalType": "address",
          "name": "account",
          "type": "address"
        },
        {
          "components": [
            {
              "internalType": "bytes",
              "name": "signature",
              "type": "bytes"
            },
            {
              "internalType": "address",
              "name": "signer",
              "type": "address"
            }
          ],
          "internalType": "struct SocialRecoveryModule.GuardianSignature[]",
          "name": "guardianSignatures",
          "type": "tuple[]"
        }
      ],
      "name": "cancelRecovery",
      "outputs": [],
      "stateMutability": "nonpayable",
      "type": "function"
    },
    {
      "inputs": [],
      "name": "eip712Domain",
      "outputs": [
        {
          "internalType": "bytes1",
          "name": "fields",
          "type": "bytes1"
        },
        {
          "internalType": "string",
          "name": "name",
          "type": "string"
        },
        {
          "internalType": "string",
          "name": "version",
          "type": "string"
        },
        {
          "internalType": "uint256",
          "name": "chainId",
          "type": "uint256"
        },
        {
          "internalType": "address",
          "name": "verifyingContract",
          "type": "address"
        },
        {
          "internalType": "bytes32",
          "name": "salt",
          "type": "bytes32"
        },
        {
          "internalType": "uint256[]",
          "name": "extensions",
          "type": "uint256[]"
        }
      ],
      "stateMutability": "view",
      "type": "function"
    },
    {
      "inputs": [
        {
          "internalType": "address",
          "name": "account",
          "type": "address"
        },
        {
          "internalType": "bytes",
          "name": "executionCalldata",
          "type": "bytes"
        }
      ],
      "name": "executeRecovery",
      "outputs": [],
      "stateMutability": "nonpayable",
      "type": "function"
    },
    {
      "inputs": [
        {
          "internalType": "address",
          "name": "account",
          "type": "address"
        }
      ],
      "name": "getGuardians",
      "outputs": [
        {
          "internalType": "address[]",
          "name": "",
          "type": "address[]"
        }
      ],
      "stateMutability": "view",
      "type": "function"
    },
    {
      "inputs": [],
      "name": "getMaxGuardians",
      "outputs": [
        {
          "internalType": "uint256",
          "name": "",
          "type": "uint256"
        }
      ],
      "stateMutability": "pure",
      "type": "function"
    },
    {
      "inputs": [
        {
          "internalType": "address",
          "name": "account",
          "type": "address"
        }
      ],
      "name": "getRecoveryStatus",
      "outputs": [
        {
          "internalType": "enum SocialRecoveryModule.RecoveryStatus",
          "name": "",
          "type": "uint8"
        }
      ],
      "stateMutability": "view",
      "type": "function"
    },
    {
      "inputs": [
        {
          "internalType": "address",
          "name": "account",
          "type": "address"
        }
      ],
      "name": "getThreshold",
      "outputs": [
        {
          "internalType": "uint256",
          "name": "",
          "type": "uint256"
        }
      ],
      "stateMutability": "view",
      "type": "function"
    },
    {
      "inputs": [
        {
          "internalType": "address",
          "name": "account",
          "type": "address"
        }
      ],
      "name": "getTimelock",
      "outputs": [
        {
          "internalType": "uint256",
          "name": "",
          "type": "uint256"
        }
      ],
      "stateMutability": "view",
      "type": "function"
    },
    {
      "inputs": [
        {
          "internalType": "address",
          "name": "account",
          "type": "address"
        },
        {
          "internalType": "address",
          "name": "guardian",
          "type": "address"
        }
      ],
      "name": "isGuardian",
      "outputs": [
        {
          "internalType": "bool",
          "name": "",
          "type": "bool"
        }
      ],
      "stateMutability": "view",
      "type": "function"
    },
    {
      "inputs": [
        {
          "internalType": "uint256",
          "name": "moduleTypeId",
          "type": "uint256"
        }
      ],
      "name": "isModuleType",
      "outputs": [
        {
          "internalType": "bool",
          "name": "",
          "type": "bool"
        }
      ],
      "stateMutability": "pure",
      "type": "function"
    },
    {
      "inputs": [
        {
          "internalType": "address",
          "name": "owner",
          "type": "address"
        }
      ],
      "name": "nonces",
      "outputs": [
        {
          "internalType": "uint256",
          "name": "",
          "type": "uint256"
        }
      ],
      "stateMutability": "view",
      "type": "function"
    },
    {
      "inputs": [
        {
          "internalType": "bytes",
          "name": "data",
          "type": "bytes"
        }
      ],
      "name": "onInstall",
      "outputs": [],
      "stateMutability": "nonpayable",
      "type": "function"
    },
    {
      "inputs": [
        {
          "internalType": "bytes",
          "name": "data",
          "type": "bytes"
        }
      ],
      "name": "onUninstall",
      "outputs": [],
      "stateMutability": "nonpayable",
      "type": "function"
    },
    {
      "inputs": [
        {
          "internalType": "address",
          "name": "guardian",
          "type": "address"
        }
      ],
      "name": "removeGuardian",
      "outputs": [],
      "stateMutability": "nonpayable",
      "type": "function"
    },
    {
      "inputs": [
        {
          "internalType": "address",
          "name": "account",
          "type": "address"
        },
        {
          "components": [
            {
              "internalType": "bytes",
              "name": "signature",
              "type": "bytes"
            },
            {
              "internalType": "address",
              "name": "signer",
              "type": "address"
            }
          ],
          "internalType": "struct SocialRecoveryModule.GuardianSignature[]",
          "name": "guardianSignatures",
          "type": "tuple[]"
        },
        {
          "internalType": "bytes",
          "name": "executionCalldata",
          "type": "bytes"
        }
      ],
      "name": "startRecovery",
      "outputs": [],
      "stateMutability": "nonpayable",
      "type": "function"
    },
    {
      "inputs": [
        {
          "internalType": "uint256",
          "name": "threshold",
          "type": "uint256"
        }
      ],
      "name": "updateThreshold",
      "outputs": [],
      "stateMutability": "nonpayable",
      "type": "function"
    },
    {
      "inputs": [
        {
          "internalType": "uint256",
          "name": "timelock",
          "type": "uint256"
        }
      ],
      "name": "updateTimelock",
      "outputs": [],
      "stateMutability": "nonpayable",
      "type": "function"
    }
  ],
  "transactionHash": "0x6f5e186b88fd775b239b8c4ef070ea683519f418e8abc0d10ad1ca88ee6a87d7",
  "args": [
    "Social Recovery Module",
    "1.0"
  ],
  "numDeployments": 2,
  "solcInputHash": "c3b2dab0405a1dbe41ae832df376adb5",
  "bytecode": "0x61016060405234801561001157600080fd5b5060405161230e38038061230e83398101604081905261003091610227565b818161003d8260006100ea565b6101205261004c8160016100ea565b61014052815160208084019190912060e052815190820120610100524660a0526100d960e05161010051604080517f8b73c3c69bb8fe3d512ecc4cf759cc79239f7b179b0ffacaa9a75d522b39400f60208201529081019290925260608201524660808201523060a082015260009060c00160405160208183030381529060405280519060200120905090565b60805250503060c0525061042e9050565b6000602083511015610106576100ff8361011d565b9050610117565b816101118482610319565b5060ff90505b92915050565b600080829050601f81511115610151578260405163305a27a960e01b815260040161014891906103d7565b60405180910390fd5b805161015c8261040a565b179392505050565b634e487b7160e01b600052604160045260246000fd5b60005b8381101561019557818101518382015260200161017d565b50506000910152565b600082601f8301126101af57600080fd5b81516001600160401b038111156101c8576101c8610164565b604051601f8201601f19908116603f011681016001600160401b03811182821017156101f6576101f6610164565b60405281815283820160200185101561020e57600080fd5b61021f82602083016020870161017a565b949350505050565b6000806040838503121561023a57600080fd5b82516001600160401b0381111561025057600080fd5b61025c8582860161019e565b602085015190935090506001600160401b0381111561027a57600080fd5b6102868582860161019e565b9150509250929050565b600181811c908216806102a457607f821691505b6020821081036102c457634e487b7160e01b600052602260045260246000fd5b50919050565b601f82111561031457806000526020600020601f840160051c810160208510156102f15750805b601f840160051c820191505b8181101561031157600081556001016102fd565b50505b505050565b81516001600160401b0381111561033257610332610164565b610346816103408454610290565b846102ca565b6020601f82116001811461037a57600083156103625750848201515b600019600385901b1c1916600184901b178455610311565b600084815260208120601f198516915b828110156103aa578785015182556020948501946001909201910161038a565b50848210156103c85786840151600019600387901b60f8161c191681555b50505050600190811b01905550565b60208152600082518060208401526103f681604085016020870161017a565b601f01601f19169190910160400192915050565b805160208083015191908110156102c45760001960209190910360031b1b16919050565b60805160a05160c05160e051610100516101205161014051611e866104886000396000610dca01526000610d980152600061141c015260006113f40152600061134f01526000611379015260006113a30152611e866000f3fe608060405234801561001057600080fd5b50600436106101215760003560e01c80638a91b0e3116100ad578063d7d7442f11610071578063d7d7442f146102ab578063e47393ed146102be578063ecd05961146102c5578063f18858ab146102d9578063fa1ccffd146102f957600080fd5b80638a91b0e31461022357806399c6c3fa14610236578063a526d83b14610249578063bf1e799b1461025c578063d4ee97341461028857600080fd5b806371404156116100f4578063714041561461017f578063720b0ed21461019257806378977168146101a55780637ecebe00146101df57806384b0196e1461020857600080fd5b806307c73d34146101265780630ba234d61461014f5780632795f912146101595780636d61fe701461016c575b600080fd5b61013961013436600461173b565b61030c565b604051610146919061176e565b60405180910390f35b610157610377565b005b6101576101673660046117de565b6103be565b61015761017a366004611878565b6104ec565b61015761018d36600461173b565b6105c6565b6101576101a0366004611954565b6105d0565b6101d16101b336600461173b565b6001600160a01b031660009081526003602052604090206004015490565b604051908152602001610146565b6101d16101ed36600461173b565b6001600160a01b031660009081526002602052604090205490565b61021061065b565b60405161014697969594939291906119eb565b610157610231366004611a83565b6106a1565b610157610244366004611ac4565b61074e565b61015761025736600461173b565b61083d565b6101d161026a36600461173b565b6001600160a01b031660009081526003602052604090206005015490565b61029b610296366004611b4a565b610847565b6040519015158152602001610146565b6101576102b9366004611b83565b610872565b60206101d1565b61029b6102d3366004611b83565b60021490565b6102ec6102e736600461173b565b61087c565b6040516101469190611b9c565b610157610307366004611b83565b6108a0565b6001600160a01b0381166000908152600360208190526040822001548082036103385750600092915050565b6001600160a01b03831660009081526003602052604090206005015461035e9082611bfe565b42101561036e5750600192915050565b50600292915050565b3360006103838261030c565b600281111561039457610394611758565b036103b2576040516336ccdaa560e01b815260040160405180910390fd5b6103bb336108aa565b50565b8260026103ca8261030c565b60028111156103db576103db611758565b146103f957604051637c57798b60e11b815260040160405180910390fd5b6001600160a01b038416600090815260036020526040908190206002015490516104269085908590611c11565b60405180910390201461044c57604051632eb1e0f960e21b815260040160405180910390fd5b6001600160a01b038416600090815260036020818152604080842060028101859055909201929092558051601f85018390048302810183019091528381526104b19186919086908690819084018382808284376000920191909152506108fa92505050565b506040516001600160a01b038516907ffcd2de31341801b7fd80895c780aae50c1505fd674ff1b9b9764c56c633434d690600090a250505050565b600033905060008060008480602001905181019061050a9190611c21565b92509250925082516000036105325760405163af0f2b5160e01b815260040160405180910390fd5b60005b8351811015610569576105618585838151811061055457610554611ceb565b6020026020010151610908565b600101610535565b5061057484836109cd565b61057e8482610a67565b836001600160a01b03167f1bb2cf2ce981360109c48db05416ea380edeec6b23f5266b1cc3be41e24a3e94866040516105b79190611d01565b60405180910390a25050505050565b6103bb3382610ad8565b8260006105dc8261030c565b60028111156105ed576105ed611758565b0361060b576040516336ccdaa560e01b815260040160405180910390fd5b600061063d85610638876001600160a01b0316600090815260026020526040902080546001810190915590565b610b99565b905061064b85858584610c0c565b610654856108aa565b5050505050565b60006060806000806000606061066f610d91565b610677610dc3565b60408051600080825260208201909252600f60f81b9b939a50919850469750309650945092509050565b3360008181526003602052604090206106b990610df0565b6001600160a01b038116600090815260036020526040812090818181816106e082826116f4565b5050505060028201600090556003820160009055600482016000905560058201600090555050806001600160a01b03167fc8913c4ab45f9cf985973c570fc361bb110b13a7312ed2210427746284f65f4c8484604051610741929190611d14565b60405180910390a2505050565b84600061075a8261030c565b600281111561076b5761076b611758565b146107895760405163de036b2b60e01b815260040160405180910390fd5b60006107bd8785856107b88b6001600160a01b0316600090815260026020526040902080546001810190915590565b610df9565b90506107cb87878784610c0c565b83836040516107db929190611c11565b604080519182900382206001600160a01b038a166000818152600360208190529381206002810193909355429290930191909155917fcd4e9df2b0a742bc5628c20baf55859f839c034aa76a32f600d6b085c4de48299190a250505050505050565b6103bb3382610908565b6001600160a01b03821660009081526003602052604081206108699083610e91565b90505b92915050565b6103bb33826109cd565b6001600160a01b038116600090815260036020526040902060609061086c90610eb3565b6103bb3382610a67565b6001600160a01b038116600081815260036020819052604080832060028101849055909101829055517f8154b6c5e1fc90d44b49808ef93f9739148d0821411890f8cd684385e24b9f1e9190a250565b606061086983836000610ec7565b60206001600160a01b038316600090815260036020526040902061092b90610f66565b1061094957604051639308529b60e01b815260040160405180910390fd5b6001600160a01b038216600090815260036020526040902061096b9082610f70565b61098857604051630eedf5c160e41b815260040160405180910390fd5b6040516001600160a01b0382811682528316907fbc3292102fa77e083913064b282926717cdfaede4d35f553d66366c0a3da755a906020015b60405180910390a25050565b8015806109f957506001600160a01b03821660009081526003602052604090206109f690610f66565b81115b15610a175760405163aabd5a0960e01b815260040160405180910390fd5b6001600160a01b03821660008181526003602052604090819020600401839055517fd3005e99e9685e065a46f77dad8a1a1d43354338c5eec3e7f4757beb17fee129906109c19084815260200190565b80600003610a8857604051637c68874160e11b815260040160405180910390fd5b6001600160a01b03821660008181526003602052604090819020600501839055517f5ff17639128390f55c7774a53a02872ad1935a5aee9469056796fe0a10120e99906109c19084815260200190565b6001600160a01b0382166000908152600360205260409020600481015490610aff90610f66565b03610b1d5760405163380da21160e11b815260040160405180910390fd5b6001600160a01b0382166000908152600360205260409020610b3f9082610f85565b610b5c576040516337c5c3a360e21b815260040160405180910390fd5b6040516001600160a01b0382811682528316907fee943cdb81826d5909c559c6b1ae6908fcaf2dbc16c4b730346736b486283e8b906020016109c1565b604080517fbfb15feab3bc2e915d8ab816772c2e2f979f5c35c711ee47b52678d09e33246160208201526001600160a01b03841691810191909152606081018290526000908190608001604051602081830303815290604052805190602001209050610c0481610f9a565b949350505050565b6020821115610c2e576040516374d5b24960e11b815260040160405180910390fd5b6001600160a01b038416600090815260036020526040902060040154821015610c6a576040516359fa4a9360e01b815260040160405180910390fd5b6000805b83811015610d89576000858583818110610c8a57610c8a611ceb565b9050602002810190610c9c9190611d43565b610cad90604081019060200161173b565b9050610cb98782610847565b1580610d2f5750610d2d8185888886818110610cd757610cd7611ceb565b9050602002810190610ce99190611d43565b610cf39080611d63565b8080601f016020809104026020016040519081016040528093929190818152602001838380828437600092019190915250610fc792505050565b155b15610d4d576040516301ea06f160e21b815260040160405180910390fd5b826001600160a01b0316816001600160a01b031611610d7f57604051637327615960e11b815260040160405180910390fd5b9150600101610c6e565b505050505050565b6060610dbe7f0000000000000000000000000000000000000000000000000000000000000000600061103b565b905090565b6060610dbe7f0000000000000000000000000000000000000000000000000000000000000000600161103b565b6103bb816110e6565b6000807f3df21d6725a2d5d967cb4d963a0a6bd44b6335aa359018c91c00d7d0bbceb152868686604051610e2e929190611c11565b604051908190038120610e6693929187906020019384526001600160a01b039290921660208401526040830152606082015260800190565b604051602081830303815290604052805190602001209050610e8781610f9a565b9695505050505050565b6001600160a01b03811660009081526001830160205260408120541515610869565b60606000610ec083611148565b9392505050565b606081471015610ef85760405163cf47918160e01b8152476004820152602481018390526044015b60405180910390fd5b600080856001600160a01b03168486604051610f149190611da9565b60006040518083038185875af1925050503d8060008114610f51576040519150601f19603f3d011682016040523d82523d6000602084013e610f56565b606091505b5091509150610e878683836111a4565b600061086c825490565b6000610869836001600160a01b038416611200565b6000610869836001600160a01b03841661124f565b600061086c610fa7611342565b8360405161190160f01b8152600281019290925260228201526042902090565b6000836001600160a01b03163b60000361102957600080610fe8858561146d565b509092509050600081600381111561100257611002611758565b1480156110205750856001600160a01b0316826001600160a01b0316145b92505050610ec0565b6110348484846114ba565b9050610ec0565b606060ff83146110555761104e83611595565b905061086c565b81805461106190611dbb565b80601f016020809104026020016040519081016040528092919081815260200182805461108d90611dbb565b80156110da5780601f106110af576101008083540402835291602001916110da565b820191906000526020600020905b8154815290600101906020018083116110bd57829003601f168201915b5050505050905061086c565b60006110f0825490565b905060005b818110156111405782600101600084600001838154811061111857611118611ceb565b90600052602060002001548152602001908152602001600020600090558060010190506110f5565b505060009055565b60608160000180548060200260200160405190810160405280929190818152602001828054801561119857602002820191906000526020600020905b815481526020019060010190808311611184575b50505050509050919050565b6060826111b9576111b4826115d4565b610ec0565b81511580156111d057506001600160a01b0384163b155b156111f957604051639996b31560e01b81526001600160a01b0385166004820152602401610eef565b5080610ec0565b60008181526001830160205260408120546112475750815460018181018455600084815260208082209093018490558454848252828601909352604090209190915561086c565b50600061086c565b60008181526001830160205260408120548015611338576000611273600183611df5565b855490915060009061128790600190611df5565b90508082146112ec5760008660000182815481106112a7576112a7611ceb565b90600052602060002001549050808760000184815481106112ca576112ca611ceb565b6000918252602080832090910192909255918252600188019052604090208390555b85548690806112fd576112fd611e08565b60019003818190600052602060002001600090559055856001016000868152602001908152602001600020600090556001935050505061086c565b600091505061086c565b6000306001600160a01b037f00000000000000000000000000000000000000000000000000000000000000001614801561139b57507f000000000000000000000000000000000000000000000000000000000000000046145b156113c557507f000000000000000000000000000000000000000000000000000000000000000090565b610dbe604080517f8b73c3c69bb8fe3d512ecc4cf759cc79239f7b179b0ffacaa9a75d522b39400f60208201527f0000000000000000000000000000000000000000000000000000000000000000918101919091527f000000000000000000000000000000000000000000000000000000000000000060608201524660808201523060a082015260009060c00160405160208183030381529060405280519060200120905090565b600080600083516041036114a75760208401516040850151606086015160001a611499888285856115fd565b9550955095505050506114b3565b50508151600091506002905b9250925092565b6000806000856001600160a01b031685856040516024016114dc929190611e1e565b60408051601f198184030181529181526020820180516001600160e01b0316630b135d3f60e11b179052516115119190611da9565b600060405180830381855afa9150503d806000811461154c576040519150601f19603f3d011682016040523d82523d6000602084013e611551565b606091505b509150915081801561156557506020815110155b8015610e8757508051630b135d3f60e11b9061158a9083016020908101908401611e37565b149695505050505050565b606060006115a2836116cc565b604080516020808252818301909252919250600091906020820181803683375050509182525060208101929092525090565b8051156115e45780518082602001fd5b60405163d6bda27560e01b815260040160405180910390fd5b600080807f7fffffffffffffffffffffffffffffff5d576e7357a4501ddfe92f46681b20a084111561163857506000915060039050826116c2565b604080516000808252602082018084528a905260ff891692820192909252606081018790526080810186905260019060a0016020604051602081039080840390855afa15801561168c573d6000803e3d6000fd5b5050604051601f1901519150506001600160a01b0381166116b8575060009250600191508290506116c2565b9250600091508190505b9450945094915050565b600060ff8216601f81111561086c57604051632cd44ac360e21b815260040160405180910390fd5b50805460008255906000526020600020908101906103bb91905b80821115611722576000815560010161170e565b5090565b6001600160a01b03811681146103bb57600080fd5b60006020828403121561174d57600080fd5b8135610ec081611726565b634e487b7160e01b600052602160045260246000fd5b602081016003831061179057634e487b7160e01b600052602160045260246000fd5b91905290565b60008083601f8401126117a857600080fd5b5081356001600160401b038111156117bf57600080fd5b6020830191508360208285010111156117d757600080fd5b9250929050565b6000806000604084860312156117f357600080fd5b83356117fe81611726565b925060208401356001600160401b0381111561181957600080fd5b61182586828701611796565b9497909650939450505050565b634e487b7160e01b600052604160045260246000fd5b604051601f8201601f191681016001600160401b038111828210171561187057611870611832565b604052919050565b60006020828403121561188a57600080fd5b81356001600160401b038111156118a057600080fd5b8201601f810184136118b157600080fd5b80356001600160401b038111156118ca576118ca611832565b6118dd601f8201601f1916602001611848565b8181528560208385010111156118f257600080fd5b81602084016020830137600091810160200191909152949350505050565b60008083601f84011261192257600080fd5b5081356001600160401b0381111561193957600080fd5b6020830191508360208260051b85010111156117d757600080fd5b60008060006040848603121561196957600080fd5b833561197481611726565b925060208401356001600160401b0381111561198f57600080fd5b61182586828701611910565b60005b838110156119b657818101518382015260200161199e565b50506000910152565b600081518084526119d781602086016020860161199b565b601f01601f19169290920160200192915050565b60ff60f81b8816815260e060208201526000611a0a60e08301896119bf565b8281036040840152611a1c81896119bf565b606084018890526001600160a01b038716608085015260a0840186905283810360c08501528451808252602080870193509091019060005b81811015611a72578351835260209384019390920191600101611a54565b50909b9a5050505050505050505050565b60008060208385031215611a9657600080fd5b82356001600160401b03811115611aac57600080fd5b611ab885828601611796565b90969095509350505050565b600080600080600060608688031215611adc57600080fd5b8535611ae781611726565b945060208601356001600160401b03811115611b0257600080fd5b611b0e88828901611910565b90955093505060408601356001600160401b03811115611b2d57600080fd5b611b3988828901611796565b969995985093965092949392505050565b60008060408385031215611b5d57600080fd5b8235611b6881611726565b91506020830135611b7881611726565b809150509250929050565b600060208284031215611b9557600080fd5b5035919050565b602080825282518282018190526000918401906040840190835b81811015611bdd5783516001600160a01b0316835260209384019390920191600101611bb6565b509095945050505050565b634e487b7160e01b600052601160045260246000fd5b8082018082111561086c5761086c611be8565b8183823760009101908152919050565b600080600060608486031215611c3657600080fd5b83516001600160401b03811115611c4c57600080fd5b8401601f81018613611c5d57600080fd5b80516001600160401b03811115611c7657611c76611832565b8060051b611c8660208201611848565b91825260208184018101929081019089841115611ca257600080fd5b6020850194505b83851015611cd05784519250611cbe83611726565b82825260209485019490910190611ca9565b6020890151604090990151909a989950979650505050505050565b634e487b7160e01b600052603260045260246000fd5b60208152600061086960208301846119bf565b60208152816020820152818360408301376000818301604090810191909152601f909201601f19160101919050565b60008235603e19833603018112611d5957600080fd5b9190910192915050565b6000808335601e19843603018112611d7a57600080fd5b8301803591506001600160401b03821115611d9457600080fd5b6020019150368190038213156117d757600080fd5b60008251611d5981846020870161199b565b600181811c90821680611dcf57607f821691505b602082108103611def57634e487b7160e01b600052602260045260246000fd5b50919050565b8181038181111561086c5761086c611be8565b634e487b7160e01b600052603160045260246000fd5b828152604060208201526000610c0460408301846119bf565b600060208284031215611e4957600080fd5b505191905056fea26469706673582212203c58e9fc9c258b9209788c6df9515bc6ba8a5b1542e3269d5e975ec6996fc37564736f6c634300081c0033",
  "devdoc": {
    "details": "Social recovery module enabling account reconfiguration through a timelocked guardian-based consensus mechanism. Provides M-of-N guardian multi-signature with timelock protection, recovery cancellation, and configurable security parameters.",
    "errors": {
      "AddressEmptyCode(address)": [
        {
          "details": "There's no code at `target` (it is not a contract)."
        }
      ],
      "FailedCall()": [
        {
          "details": "A call to an address target failed. The target may have reverted."
        }
      ],
      "InsufficientBalance(uint256,uint256)": [
        {
          "details": "The ETH balance of the account is not enough to perform the operation."
        }
      ],
      "InvalidAccountNonce(address,uint256)": [
        {
          "details": "The nonce used for an `account` is not the expected current nonce."
        }
      ]
    },
    "events": {
      "EIP712DomainChanged()": {
        "details": "MAY be emitted to signal that the domain could have changed."
      }
    },
    "kind": "dev",
    "methods": {
      "addGuardian(address)": {
        "details": "Adds a new guardian to the account's recovery configuration. Only callable by the account itself.",
        "params": {
          "guardian": "Address of the new guardian"
        }
      },
      "cancelRecovery()": {
        "custom:security": "Direct account control takes precedence over recovery process",
        "details": "Cancels an ongoing recovery process. Can only be called by the account itself for self-cancellation."
      },
      "cancelRecovery(address,(bytes,address)[])": {
        "custom:security": "Uses same signature threshold and verification process as recovery initiation",
        "details": "Allows guardians to cancel a recovery process. Requires threshold signatures from guardians, similar to starting recovery. Uses same signature threshold and verification process as recovery initiation.",
        "params": {
          "account": "The account to cancel recovery for",
          "guardianSignatures": "Array of guardian signatures authorizing cancellation, sorted by signer address"
        }
      },
      "constructor": {
        "details": "Initializes the module with a name and version."
      },
      "eip712Domain()": {
        "details": "returns the fields and values that describe the domain separator used by this contract for EIP-712 signature."
      },
      "executeRecovery(address,bytes)": {
        "custom:security": "Validates execution matches the hash committed during startRecovery and resets recovery state afterward",
        "details": "Executes the recovery process after timelock period has passed. Only callable when recovery status is Ready. Validates that execution matches the hash committed during startRecovery and resets recovery state afterward.",
        "params": {
          "account": "The account to execute recovery for",
          "executionCalldata": "The calldata to execute, must match the pending recovery hash stored during startRecovery"
        }
      },
      "getGuardians(address)": {
        "details": "Gets all guardians for an ERC-7579 Account.",
        "params": {
          "account": "The ERC-7579 Account to get guardians for"
        },
        "returns": {
          "_0": "An array of all guardians"
        }
      },
      "getMaxGuardians()": {
        "details": "Gets the maximum number of guardians for an ERC-7579 Account.",
        "returns": {
          "_0": "The maximum number of guardians"
        }
      },
      "getRecoveryStatus(address)": {
        "details": "Gets the current recovery status of an ERC-7579 Account. Determines status based on recoveryStart timestamp and timelock duration.",
        "params": {
          "account": "The ERC-7579 Account to get the recovery status for"
        },
        "returns": {
          "_0": "Status enum value: NotStarted (0), Started (1), or Ready (2)"
        }
      },
      "getThreshold(address)": {
        "details": "Gets the threshold for an ERC-7579 Account.",
        "params": {
          "account": "The ERC-7579 Account to get the threshold for"
        },
        "returns": {
          "_0": "The threshold value"
        }
      },
      "getTimelock(address)": {
        "details": "Gets the timelock for an ERC-7579 Account.",
        "params": {
          "account": "The ERC-7579 Account to get the timelock for"
        },
        "returns": {
          "_0": "The timelock value"
        }
      },
      "isGuardian(address,address)": {
        "details": "Checks if an address is a guardian for an ERC-7579 Account.",
        "params": {
          "account": "The ERC-7579 Account to check guardians for",
          "guardian": "The address to check as a guardian"
        },
        "returns": {
          "_0": "true if the address is a guardian, false otherwise"
        }
      },
      "isModuleType(uint256)": {
        "details": "Returns boolean value if module is a certain type",
        "params": {
          "moduleTypeId": "the module type ID according the ERC-7579 spec MUST return true if the module is of the given type and false otherwise"
        }
      },
      "nonces(address)": {
        "details": "Returns the next unused nonce for an address."
      },
      "onInstall(bytes)": {
        "details": "This function is called by the smart account during installation of the module",
        "params": {
          "data": "arbitrary data that may be required on the module during `onInstall` initialization MUST revert on error (e.g. if module is already enabled)"
        }
      },
      "onUninstall(bytes)": {
        "details": "This function is called by the smart account during uninstallation of the module",
        "params": {
          "data": "arbitrary data that may be required on the module during `onUninstall` de-initialization MUST revert on error"
        }
      },
      "removeGuardian(address)": {
        "details": "Removes a guardian from the account's recovery configuration. Only callable by the account itself.",
        "params": {
          "guardian": "Address of the guardian to remove"
        }
      },
      "startRecovery(address,(bytes,address)[],bytes)": {
        "custom:security": "Uses EIP-712 for signature verification and nonces for replay protection",
        "details": "Starts the recovery process for an ERC-7579 Account. Requires threshold number of valid guardian signatures and commits the hash of the approved execution calldata for recovery.",
        "params": {
          "account": "The ERC-7579 Account to start recovery for",
          "executionCalldata": "The calldata to execute during recovery. This defines the account reconfiguration to perform.",
          "guardianSignatures": "Array of guardian signatures authorizing the recovery. Each signature contains a signature and the signer's address, sorted by signer address in ascending order."
        }
      },
      "updateThreshold(uint256)": {
        "details": "Changes the number of required guardian signatures. Only callable by the account itself.",
        "params": {
          "threshold": "New threshold value"
        }
      },
      "updateTimelock(uint256)": {
        "details": "Changes the timelock duration for recovery. Only callable by the account itself.",
        "params": {
          "timelock": "New timelock duration in seconds"
        }
      }
    },
    "title": "Social Recovery Executor Module",
    "version": 1
  },
  "userdoc": {
    "kind": "user",
    "methods": {},
    "version": 1
  },
  "storageLayout": {
    "storage": [
      {
        "astId": 4017,
        "contract": "contracts/modules/SocialRecoveryModule.sol:SocialRecoveryModule",
        "label": "_nameFallback",
        "offset": 0,
        "slot": "0",
        "type": "t_string_storage"
      },
      {
        "astId": 4019,
        "contract": "contracts/modules/SocialRecoveryModule.sol:SocialRecoveryModule",
        "label": "_versionFallback",
        "offset": 0,
        "slot": "1",
        "type": "t_string_storage"
      },
      {
        "astId": 1653,
        "contract": "contracts/modules/SocialRecoveryModule.sol:SocialRecoveryModule",
        "label": "_nonces",
        "offset": 0,
        "slot": "2",
        "type": "t_mapping(t_address,t_uint256)"
      },
      {
        "astId": 8792,
        "contract": "contracts/modules/SocialRecoveryModule.sol:SocialRecoveryModule",
        "label": "_recoveryConfigs",
        "offset": 0,
        "slot": "3",
        "type": "t_mapping(t_address,t_struct(RecoveryConfig)8771_storage)"
      }
    ],
    "types": {
      "t_address": {
        "encoding": "inplace",
        "label": "address",
        "numberOfBytes": "20"
      },
      "t_array(t_bytes32)dyn_storage": {
        "base": "t_bytes32",
        "encoding": "dynamic_array",
        "label": "bytes32[]",
        "numberOfBytes": "32"
      },
      "t_bytes32": {
        "encoding": "inplace",
        "label": "bytes32",
        "numberOfBytes": "32"
      },
      "t_mapping(t_address,t_struct(RecoveryConfig)8771_storage)": {
        "encoding": "mapping",
        "key": "t_address",
        "label": "mapping(address => struct SocialRecoveryModule.RecoveryConfig)",
        "numberOfBytes": "32",
        "value": "t_struct(RecoveryConfig)8771_storage"
      },
      "t_mapping(t_address,t_uint256)": {
        "encoding": "mapping",
        "key": "t_address",
        "label": "mapping(address => uint256)",
        "numberOfBytes": "32",
        "value": "t_uint256"
      },
      "t_mapping(t_bytes32,t_uint256)": {
        "encoding": "mapping",
        "key": "t_bytes32",
        "label": "mapping(bytes32 => uint256)",
        "numberOfBytes": "32",
        "value": "t_uint256"
      },
      "t_string_storage": {
        "encoding": "bytes",
        "label": "string",
        "numberOfBytes": "32"
      },
      "t_struct(AddressSet)8315_storage": {
        "encoding": "inplace",
        "label": "struct EnumerableSet.AddressSet",
        "members": [
          {
            "astId": 8314,
            "contract": "contracts/modules/SocialRecoveryModule.sol:SocialRecoveryModule",
            "label": "_inner",
            "offset": 0,
            "slot": "0",
            "type": "t_struct(Set)7944_storage"
          }
        ],
        "numberOfBytes": "64"
      },
      "t_struct(RecoveryConfig)8771_storage": {
        "encoding": "inplace",
        "label": "struct SocialRecoveryModule.RecoveryConfig",
        "members": [
          {
            "astId": 8762,
            "contract": "contracts/modules/SocialRecoveryModule.sol:SocialRecoveryModule",
            "label": "guardians",
            "offset": 0,
            "slot": "0",
            "type": "t_struct(AddressSet)8315_storage"
          },
          {
            "astId": 8764,
            "contract": "contracts/modules/SocialRecoveryModule.sol:SocialRecoveryModule",
            "label": "pendingExecutionHash",
            "offset": 0,
            "slot": "2",
            "type": "t_bytes32"
          },
          {
            "astId": 8766,
            "contract": "contracts/modules/SocialRecoveryModule.sol:SocialRecoveryModule",
            "label": "recoveryStart",
            "offset": 0,
            "slot": "3",
            "type": "t_uint256"
          },
          {
            "astId": 8768,
            "contract": "contracts/modules/SocialRecoveryModule.sol:SocialRecoveryModule",
            "label": "threshold",
            "offset": 0,
            "slot": "4",
            "type": "t_uint256"
          },
          {
            "astId": 8770,
            "contract": "contracts/modules/SocialRecoveryModule.sol:SocialRecoveryModule",
            "label": "timelock",
            "offset": 0,
            "slot": "5",
            "type": "t_uint256"
          }
        ],
        "numberOfBytes": "192"
      },
      "t_struct(Set)7944_storage": {
        "encoding": "inplace",
        "label": "struct EnumerableSet.Set",
        "members": [
          {
            "astId": 7939,
            "contract": "contracts/modules/SocialRecoveryModule.sol:SocialRecoveryModule",
            "label": "_values",
            "offset": 0,
            "slot": "0",
            "type": "t_array(t_bytes32)dyn_storage"
          },
          {
            "astId": 7943,
            "contract": "contracts/modules/SocialRecoveryModule.sol:SocialRecoveryModule",
            "label": "_positions",
            "offset": 0,
            "slot": "1",
            "type": "t_mapping(t_bytes32,t_uint256)"
          }
        ],
        "numberOfBytes": "64"
      },
      "t_uint256": {
        "encoding": "inplace",
        "label": "uint256",
        "numberOfBytes": "32"
      }
    }
  }
}