{
  "_format": "hh-sol-artifact-1",
  "contractName": "CounterModule",
  "sourceName": "contracts/CounterModule.sol",
  "abi": [
    {
      "anonymous": false,
      "inputs": [
        {
          "indexed": false,
          "internalType": "address",
          "name": "account",
          "type": "address"
        },
        {
          "indexed": false,
          "internalType": "bytes",
          "name": "data",
          "type": "bytes"
        }
      ],
      "name": "ModuleInstalledReceived",
      "type": "event"
    },
    {
      "anonymous": false,
      "inputs": [
        {
          "indexed": false,
          "internalType": "address",
          "name": "account",
          "type": "address"
        },
        {
          "indexed": false,
          "internalType": "bytes",
          "name": "data",
          "type": "bytes"
        }
      ],
      "name": "ModuleUninstalledReceived",
      "type": "event"
    },
    {
      "inputs": [],
      "name": "getNumber",
      "outputs": [
        {
          "internalType": "uint256",
          "name": "",
          "type": "uint256"
        }
      ],
      "stateMutability": "view",
      "type": "function"
    },
    {
      "inputs": [
        {
          "internalType": "uint256",
          "name": "moduleTypeId",
          "type": "uint256"
        }
      ],
      "name": "isModuleType",
      "outputs": [
        {
          "internalType": "bool",
          "name": "",
          "type": "bool"
        }
      ],
      "stateMutability": "pure",
      "type": "function"
    },
    {
      "inputs": [
        {
          "internalType": "bytes",
          "name": "data",
          "type": "bytes"
        }
      ],
      "name": "onInstall",
      "outputs": [],
      "stateMutability": "nonpayable",
      "type": "function"
    },
    {
      "inputs": [
        {
          "internalType": "bytes",
          "name": "data",
          "type": "bytes"
        }
      ],
      "name": "onUninstall",
      "outputs": [],
      "stateMutability": "nonpayable",
      "type": "function"
    },
    {
      "inputs": [
        {
          "internalType": "uint256",
          "name": "number",
          "type": "uint256"
        }
      ],
      "name": "setNumber",
      "outputs": [],
      "stateMutability": "nonpayable",
      "type": "function"
    }
  ],
  "bytecode": "0x6080604052348015600e575f5ffd5b506102838061001c5f395ff3fe608060405234801561000f575f5ffd5b5060043610610055575f3560e01c80633fb5c1cb146100595780636d61fe701461007a5780638a91b0e31461008d578063ecd05961146100a0578063f2c9ecd8146100c9575b5f5ffd5b610078610067366004610189565b335f90815260208190526040902055565b005b6100786100883660046101a0565b6100e6565b61007861009b3660046101a0565b61014a565b6100b46100ae366004610189565b60021490565b60405190151581526020015b60405180910390f35b335f908152602081905260409020546040519081526020016100c0565b5f6100f382840184610189565b905061010a81335f90815260208190526040902055565b7f1bb2cf2ce981360109c48db05416ea380edeec6b23f5266b1cc3be41e24a3e9433848460405161013d9392919061020e565b60405180910390a1505050565b7fc8913c4ab45f9cf985973c570fc361bb110b13a7312ed2210427746284f65f4c33838360405161017d9392919061020e565b60405180910390a15050565b5f60208284031215610199575f5ffd5b5035919050565b5f5f602083850312156101b1575f5ffd5b823567ffffffffffffffff8111156101c7575f5ffd5b8301601f810185136101d7575f5ffd5b803567ffffffffffffffff8111156101ed575f5ffd5b8560208284010111156101fe575f5ffd5b6020919091019590945092505050565b6001600160a01b03841681526040602082018190528101829052818360608301375f818301606090810191909152601f909201601f191601019291505056fea2646970667358221220387d95512707756e9343e344fc761847a5412ac5e760cc9ee027fe9ef7d89d1164736f6c634300081c0033",
  "linkReferences": {},
  "deployedLinkReferences": {}
}