{"contracts/CounterModule.sol":{"CounterModule":{"abi":[{"anonymous":false,"inputs":[{"indexed":false,"internalType":"address","name":"account","type":"address"},{"indexed":false,"internalType":"bytes","name":"data","type":"bytes"}],"name":"ModuleInstalledReceived","type":"event"},{"anonymous":false,"inputs":[{"indexed":false,"internalType":"address","name":"account","type":"address"},{"indexed":false,"internalType":"bytes","name":"data","type":"bytes"}],"name":"ModuleUninstalledReceived","type":"event"},{"inputs":[],"name":"getNumber","outputs":[{"internalType":"uint256","name":"","type":"uint256"}],"stateMutability":"view","type":"function"},{"inputs":[{"internalType":"uint256","name":"moduleTypeId","type":"uint256"}],"name":"isModuleType","outputs":[{"internalType":"bool","name":"","type":"bool"}],"stateMutability":"pure","type":"function"},{"inputs":[{"internalType":"bytes","name":"data","type":"bytes"}],"name":"onInstall","outputs":[],"stateMutability":"nonpayable","type":"function"},{"inputs":[{"internalType":"bytes","name":"data","type":"bytes"}],"name":"onUninstall","outputs":[],"stateMutability":"nonpayable","type":"function"},{"inputs":[{"internalType":"uint256","name":"number","type":"uint256"}],"name":"setNumber","outputs":[],"stateMutability":"nonpayable","type":"function"}],"evm":{"bytecode":{"linkReferences":{},"object":"6080604052348015600e575f5ffd5b506102838061001c5f395ff3fe608060405234801561000f575f5ffd5b5060043610610055575f3560e01c80633fb5c1cb146100595780636d61fe701461007a5780638a91b0e31461008d578063ecd05961146100a0578063f2c9ecd8146100c9575b5f5ffd5b610078610067366004610189565b335f90815260208190526040902055565b005b6100786100883660046101a0565b6100e6565b61007861009b3660046101a0565b61014a565b6100b46100ae366004610189565b60021490565b60405190151581526020015b60405180910390f35b335f908152602081905260409020546040519081526020016100c0565b5f6100f382840184610189565b905061010a81335f90815260208190526040902055565b7f1bb2cf2ce981360109c48db05416ea380edeec6b23f5266b1cc3be41e24a3e9433848460405161013d9392919061020e565b60405180910390a1505050565b7fc8913c4ab45f9cf985973c570fc361bb110b13a7312ed2210427746284f65f4c33838360405161017d9392919061020e565b60405180910390a15050565b5f60208284031215610199575f5ffd5b5035919050565b5f5f602083850312156101b1575f5ffd5b823567ffffffffffffffff8111156101c7575f5ffd5b8301601f810185136101d7575f5ffd5b803567ffffffffffffffff8111156101ed575f5ffd5b8560208284010111156101fe575f5ffd5b6020919091019590945092505050565b6001600160a01b03841681526040602082018190528101829052818360608301375f818301606090810191909152601f909201601f191601019291505056fea2646970667358221220387d95512707756e9343e344fc761847a5412ac5e760cc9ee027fe9ef7d89d1164736f6c634300081c0033","opcodes":"PUSH1 0x80 PUSH1 0x40 MSTORE CALLVALUE DUP1 ISZERO PUSH1 0xE JUMPI PUSH0 PUSH0 REVERT JUMPDEST POP PUSH2 0x283 DUP1 PUSH2 0x1C PUSH0 CODECOPY PUSH0 RETURN INVALID PUSH1 0x80 PUSH1 0x40 MSTORE CALLVALUE DUP1 ISZERO PUSH2 0xF JUMPI PUSH0 PUSH0 REVERT JUMPDEST POP PUSH1 0x4 CALLDATASIZE LT PUSH2 0x55 JUMPI PUSH0 CALLDATALOAD PUSH1 0xE0 SHR DUP1 PUSH4 0x3FB5C1CB EQ PUSH2 0x59 JUMPI DUP1 PUSH4 0x6D61FE70 EQ PUSH2 0x7A JUMPI DUP1 PUSH4 0x8A91B0E3 EQ PUSH2 0x8D JUMPI DUP1 PUSH4 0xECD05961 EQ PUSH2 0xA0 JUMPI DUP1 PUSH4 0xF2C9ECD8 EQ PUSH2 0xC9 JUMPI JUMPDEST PUSH0 PUSH0 REVERT JUMPDEST PUSH2 0x78 PUSH2 0x67 CALLDATASIZE PUSH1 0x4 PUSH2 0x189 JUMP JUMPDEST CALLER PUSH0 SWAP1 DUP2 MSTORE PUSH1 0x20 DUP2 SWAP1 MSTORE PUSH1 0x40 SWAP1 KECCAK256 SSTORE JUMP JUMPDEST STOP JUMPDEST PUSH2 0x78 PUSH2 0x88 CALLDATASIZE PUSH1 0x4 PUSH2 0x1A0 JUMP JUMPDEST PUSH2 0xE6 JUMP JUMPDEST PUSH2 0x78 PUSH2 0x9B CALLDATASIZE PUSH1 0x4 PUSH2 0x1A0 JUMP JUMPDEST PUSH2 0x14A JUMP JUMPDEST PUSH2 0xB4 PUSH2 0xAE CALLDATASIZE PUSH1 0x4 PUSH2 0x189 JUMP JUMPDEST PUSH1 0x2 EQ SWAP1 JUMP JUMPDEST PUSH1 0x40 MLOAD SWAP1 ISZERO ISZERO DUP2 MSTORE PUSH1 0x20 ADD JUMPDEST PUSH1 0x40 MLOAD DUP1 SWAP2 SUB SWAP1 RETURN JUMPDEST CALLER PUSH0 SWAP1 DUP2 MSTORE PUSH1 0x20 DUP2 SWAP1 MSTORE PUSH1 0x40 SWAP1 KECCAK256 SLOAD PUSH1 0x40 MLOAD SWAP1 DUP2 MSTORE PUSH1 0x20 ADD PUSH2 0xC0 JUMP JUMPDEST PUSH0 PUSH2 0xF3 DUP3 DUP5 ADD DUP5 PUSH2 0x189 JUMP JUMPDEST SWAP1 POP PUSH2 0x10A DUP2 CALLER PUSH0 SWAP1 DUP2 MSTORE PUSH1 0x20 DUP2 SWAP1 MSTORE PUSH1 0x40 SWAP1 KECCAK256 SSTORE JUMP JUMPDEST PUSH32 0x1BB2CF2CE981360109C48DB05416EA380EDEEC6B23F5266B1CC3BE41E24A3E94 CALLER DUP5 DUP5 PUSH1 0x40 MLOAD PUSH2 0x13D SWAP4 SWAP3 SWAP2 SWAP1 PUSH2 0x20E JUMP JUMPDEST PUSH1 0x40 MLOAD DUP1 SWAP2 SUB SWAP1 LOG1 POP POP POP JUMP JUMPDEST PUSH32 0xC8913C4AB45F9CF985973C570FC361BB110B13A7312ED2210427746284F65F4C CALLER DUP4 DUP4 PUSH1 0x40 MLOAD PUSH2 0x17D SWAP4 SWAP3 SWAP2 SWAP1 PUSH2 0x20E JUMP JUMPDEST PUSH1 0x40 MLOAD DUP1 SWAP2 SUB SWAP1 LOG1 POP POP JUMP JUMPDEST PUSH0 PUSH1 0x20 DUP3 DUP5 SUB SLT ISZERO PUSH2 0x199 JUMPI PUSH0 PUSH0 REVERT JUMPDEST POP CALLDATALOAD SWAP2 SWAP1 POP JUMP JUMPDEST PUSH0 PUSH0 PUSH1 0x20 DUP4 DUP6 SUB SLT ISZERO PUSH2 0x1B1 JUMPI PUSH0 PUSH0 REVERT JUMPDEST DUP3 CALLDATALOAD PUSH8 0xFFFFFFFFFFFFFFFF DUP2 GT ISZERO PUSH2 0x1C7 JUMPI PUSH0 PUSH0 REVERT JUMPDEST DUP4 ADD PUSH1 0x1F DUP2 ADD DUP6 SGT PUSH2 0x1D7 JUMPI PUSH0 PUSH0 REVERT JUMPDEST DUP1 CALLDATALOAD PUSH8 0xFFFFFFFFFFFFFFFF DUP2 GT ISZERO PUSH2 0x1ED JUMPI PUSH0 PUSH0 REVERT JUMPDEST DUP6 PUSH1 0x20 DUP3 DUP5 ADD ADD GT ISZERO PUSH2 0x1FE JUMPI PUSH0 PUSH0 REVERT JUMPDEST PUSH1 0x20 SWAP2 SWAP1 SWAP2 ADD SWAP6 SWAP1 SWAP5 POP SWAP3 POP POP POP JUMP JUMPDEST PUSH1 0x1 PUSH1 0x1 PUSH1 0xA0 SHL SUB DUP5 AND DUP2 MSTORE PUSH1 0x40 PUSH1 0x20 DUP3 ADD DUP2 SWAP1 MSTORE DUP2 ADD DUP3 SWAP1 MSTORE DUP2 DUP4 PUSH1 0x60 DUP4 ADD CALLDATACOPY PUSH0 DUP2 DUP4 ADD PUSH1 0x60 SWAP1 DUP2 ADD SWAP2 SWAP1 SWAP2 MSTORE PUSH1 0x1F SWAP1 SWAP3 ADD PUSH1 0x1F NOT AND ADD ADD SWAP3 SWAP2 POP POP JUMP INVALID LOG2 PUSH5 0x6970667358 0x22 SLT KECCAK256 CODESIZE PUSH30 0x95512707756E9343E344FC761847A5412AC5E760CC9EE027FE9EF7D89D11 PUSH5 0x736F6C6343 STOP ADDMOD SHR STOP CALLER "},"methodIdentifiers":{"getNumber()":"f2c9ecd8","isModuleType(uint256)":"ecd05961","onInstall(bytes)":"6d61fe70","onUninstall(bytes)":"8a91b0e3","setNumber(uint256)":"3fb5c1cb"}}}}}