{
  "_format": "hh-sol-artifact-1",
  "contractName": "ModularAccount",
  "sourceName": "contracts/ModularAccount.sol",
  "abi": [
    {
      "inputs": [],
      "stateMutability": "nonpayable",
      "type": "constructor"
    },
    {
      "inputs": [
        {
          "internalType": "address",
          "name": "sender",
          "type": "address"
        }
      ],
      "name": "AccountUnauthorized",
      "type": "error"
    },
    {
      "inputs": [
        {
          "internalType": "uint256",
          "name": "moduleTypeId",
          "type": "uint256"
        },
        {
          "internalType": "address",
          "name": "module",
          "type": "address"
        }
      ],
      "name": "ERC7579AlreadyInstalledModule",
      "type": "error"
    },
    {
      "inputs": [],
      "name": "ERC7579DecodingError",
      "type": "error"
    },
    {
      "inputs": [
        {
          "internalType": "uint256",
          "name": "moduleTypeId",
          "type": "uint256"
        },
        {
          "internalType": "address",
          "name": "module",
          "type": "address"
        }
      ],
      "name": "ERC7579MismatchedModuleTypeId",
      "type": "error"
    },
    {
      "inputs": [
        {
          "internalType": "bytes4",
          "name": "selector",
          "type": "bytes4"
        }
      ],
      "name": "ERC7579MissingFallbackHandler",
      "type": "error"
    },
    {
      "inputs": [
        {
          "internalType": "uint256",
          "name": "moduleTypeId",
          "type": "uint256"
        },
        {
          "internalType": "address",
          "name": "module",
          "type": "address"
        }
      ],
      "name": "ERC7579UninstalledModule",
      "type": "error"
    },
    {
      "inputs": [
        {
          "internalType": "CallType",
          "name": "callType",
          "type": "bytes1"
        }
      ],
      "name": "ERC7579UnsupportedCallType",
      "type": "error"
    },
    {
      "inputs": [
        {
          "internalType": "ExecType",
          "name": "execType",
          "type": "bytes1"
        }
      ],
      "name": "ERC7579UnsupportedExecType",
      "type": "error"
    },
    {
      "inputs": [
        {
          "internalType": "uint256",
          "name": "moduleTypeId",
          "type": "uint256"
        }
      ],
      "name": "ERC7579UnsupportedModuleType",
      "type": "error"
    },
    {
      "inputs": [],
      "name": "FailedCall",
      "type": "error"
    },
    {
      "inputs": [],
      "name": "InvalidShortString",
      "type": "error"
    },
    {
      "inputs": [],
      "name": "OutOfRangeAccess",
      "type": "error"
    },
    {
      "inputs": [
        {
          "internalType": "string",
          "name": "str",
          "type": "string"
        }
      ],
      "name": "StringTooLong",
      "type": "error"
    },
    {
      "anonymous": false,
      "inputs": [],
      "name": "EIP712DomainChanged",
      "type": "event"
    },
    {
      "anonymous": false,
      "inputs": [
        {
          "indexed": false,
          "internalType": "uint256",
          "name": "batchExecutionIndex",
          "type": "uint256"
        },
        {
          "indexed": false,
          "internalType": "bytes",
          "name": "returndata",
          "type": "bytes"
        }
      ],
      "name": "ERC7579TryExecuteFail",
      "type": "event"
    },
    {
      "anonymous": false,
      "inputs": [
        {
          "indexed": false,
          "internalType": "uint256",
          "name": "moduleTypeId",
          "type": "uint256"
        },
        {
          "indexed": false,
          "internalType": "address",
          "name": "module",
          "type": "address"
        }
      ],
      "name": "ModuleInstalled",
      "type": "event"
    },
    {
      "anonymous": false,
      "inputs": [
        {
          "indexed": false,
          "internalType": "uint256",
          "name": "moduleTypeId",
          "type": "uint256"
        },
        {
          "indexed": false,
          "internalType": "address",
          "name": "module",
          "type": "address"
        }
      ],
      "name": "ModuleUninstalled",
      "type": "event"
    },
    {
      "stateMutability": "payable",
      "type": "fallback"
    },
    {
      "inputs": [],
      "name": "accountId",
      "outputs": [
        {
          "internalType": "string",
          "name": "",
          "type": "string"
        }
      ],
      "stateMutability": "view",
      "type": "function"
    },
    {
      "inputs": [],
      "name": "eip712Domain",
      "outputs": [
        {
          "internalType": "bytes1",
          "name": "fields",
          "type": "bytes1"
        },
        {
          "internalType": "string",
          "name": "name",
          "type": "string"
        },
        {
          "internalType": "string",
          "name": "version",
          "type": "string"
        },
        {
          "internalType": "uint256",
          "name": "chainId",
          "type": "uint256"
        },
        {
          "internalType": "address",
          "name": "verifyingContract",
          "type": "address"
        },
        {
          "internalType": "bytes32",
          "name": "salt",
          "type": "bytes32"
        },
        {
          "internalType": "uint256[]",
          "name": "extensions",
          "type": "uint256[]"
        }
      ],
      "stateMutability": "view",
      "type": "function"
    },
    {
      "inputs": [],
      "name": "entryPoint",
      "outputs": [
        {
          "internalType": "contract IEntryPoint",
          "name": "",
          "type": "address"
        }
      ],
      "stateMutability": "view",
      "type": "function"
    },
    {
      "inputs": [
        {
          "internalType": "bytes32",
          "name": "mode",
          "type": "bytes32"
        },
        {
          "internalType": "bytes",
          "name": "executionCalldata",
          "type": "bytes"
        }
      ],
      "name": "execute",
      "outputs": [],
      "stateMutability": "payable",
      "type": "function"
    },
    {
      "inputs": [
        {
          "internalType": "bytes32",
          "name": "mode",
          "type": "bytes32"
        },
        {
          "internalType": "bytes",
          "name": "executionCalldata",
          "type": "bytes"
        }
      ],
      "name": "executeFromExecutor",
      "outputs": [
        {
          "internalType": "bytes[]",
          "name": "returnData",
          "type": "bytes[]"
        }
      ],
      "stateMutability": "payable",
      "type": "function"
    },
    {
      "inputs": [
        {
          "internalType": "uint192",
          "name": "key",
          "type": "uint192"
        }
      ],
      "name": "getNonce",
      "outputs": [
        {
          "internalType": "uint256",
          "name": "",
          "type": "uint256"
        }
      ],
      "stateMutability": "view",
      "type": "function"
    },
    {
      "inputs": [],
      "name": "getNonce",
      "outputs": [
        {
          "internalType": "uint256",
          "name": "",
          "type": "uint256"
        }
      ],
      "stateMutability": "view",
      "type": "function"
    },
    {
      "inputs": [
        {
          "internalType": "uint256",
          "name": "moduleTypeId",
          "type": "uint256"
        },
        {
          "internalType": "address",
          "name": "module",
          "type": "address"
        },
        {
          "internalType": "bytes",
          "name": "initData",
          "type": "bytes"
        }
      ],
      "name": "installModule",
      "outputs": [],
      "stateMutability": "nonpayable",
      "type": "function"
    },
    {
      "inputs": [
        {
          "internalType": "uint256",
          "name": "moduleTypeId",
          "type": "uint256"
        },
        {
          "internalType": "address",
          "name": "module",
          "type": "address"
        },
        {
          "internalType": "bytes",
          "name": "additionalContext",
          "type": "bytes"
        }
      ],
      "name": "isModuleInstalled",
      "outputs": [
        {
          "internalType": "bool",
          "name": "",
          "type": "bool"
        }
      ],
      "stateMutability": "view",
      "type": "function"
    },
    {
      "inputs": [
        {
          "internalType": "bytes32",
          "name": "hash",
          "type": "bytes32"
        },
        {
          "internalType": "bytes",
          "name": "signature",
          "type": "bytes"
        }
      ],
      "name": "isValidSignature",
      "outputs": [
        {
          "internalType": "bytes4",
          "name": "",
          "type": "bytes4"
        }
      ],
      "stateMutability": "view",
      "type": "function"
    },
    {
      "inputs": [
        {
          "internalType": "address",
          "name": "",
          "type": "address"
        },
        {
          "internalType": "address",
          "name": "",
          "type": "address"
        },
        {
          "internalType": "uint256[]",
          "name": "",
          "type": "uint256[]"
        },
        {
          "internalType": "uint256[]",
          "name": "",
          "type": "uint256[]"
        },
        {
          "internalType": "bytes",
          "name": "",
          "type": "bytes"
        }
      ],
      "name": "onERC1155BatchReceived",
      "outputs": [
        {
          "internalType": "bytes4",
          "name": "",
          "type": "bytes4"
        }
      ],
      "stateMutability": "nonpayable",
      "type": "function"
    },
    {
      "inputs": [
        {
          "internalType": "address",
          "name": "",
          "type": "address"
        },
        {
          "internalType": "address",
          "name": "",
          "type": "address"
        },
        {
          "internalType": "uint256",
          "name": "",
          "type": "uint256"
        },
        {
          "internalType": "uint256",
          "name": "",
          "type": "uint256"
        },
        {
          "internalType": "bytes",
          "name": "",
          "type": "bytes"
        }
      ],
      "name": "onERC1155Received",
      "outputs": [
        {
          "internalType": "bytes4",
          "name": "",
          "type": "bytes4"
        }
      ],
      "stateMutability": "nonpayable",
      "type": "function"
    },
    {
      "inputs": [
        {
          "internalType": "address",
          "name": "",
          "type": "address"
        },
        {
          "internalType": "address",
          "name": "",
          "type": "address"
        },
        {
          "internalType": "uint256",
          "name": "",
          "type": "uint256"
        },
        {
          "internalType": "bytes",
          "name": "",
          "type": "bytes"
        }
      ],
      "name": "onERC721Received",
      "outputs": [
        {
          "internalType": "bytes4",
          "name": "",
          "type": "bytes4"
        }
      ],
      "stateMutability": "nonpayable",
      "type": "function"
    },
    {
      "inputs": [
        {
          "internalType": "bytes32",
          "name": "encodedMode",
          "type": "bytes32"
        }
      ],
      "name": "supportsExecutionMode",
      "outputs": [
        {
          "internalType": "bool",
          "name": "",
          "type": "bool"
        }
      ],
      "stateMutability": "view",
      "type": "function"
    },
    {
      "inputs": [
        {
          "internalType": "bytes4",
          "name": "interfaceId",
          "type": "bytes4"
        }
      ],
      "name": "supportsInterface",
      "outputs": [
        {
          "internalType": "bool",
          "name": "",
          "type": "bool"
        }
      ],
      "stateMutability": "view",
      "type": "function"
    },
    {
      "inputs": [
        {
          "internalType": "uint256",
          "name": "moduleTypeId",
          "type": "uint256"
        }
      ],
      "name": "supportsModule",
      "outputs": [
        {
          "internalType": "bool",
          "name": "",
          "type": "bool"
        }
      ],
      "stateMutability": "view",
      "type": "function"
    },
    {
      "inputs": [
        {
          "internalType": "uint256",
          "name": "moduleTypeId",
          "type": "uint256"
        },
        {
          "internalType": "address",
          "name": "module",
          "type": "address"
        },
        {
          "internalType": "bytes",
          "name": "deInitData",
          "type": "bytes"
        }
      ],
      "name": "uninstallModule",
      "outputs": [],
      "stateMutability": "nonpayable",
      "type": "function"
    },
    {
      "inputs": [
        {
          "components": [
            {
              "internalType": "address",
              "name": "sender",
              "type": "address"
            },
            {
              "internalType": "uint256",
              "name": "nonce",
              "type": "uint256"
            },
            {
              "internalType": "bytes",
              "name": "initCode",
              "type": "bytes"
            },
            {
              "internalType": "bytes",
              "name": "callData",
              "type": "bytes"
            },
            {
              "internalType": "bytes32",
              "name": "accountGasLimits",
              "type": "bytes32"
            },
            {
              "internalType": "uint256",
              "name": "preVerificationGas",
              "type": "uint256"
            },
            {
              "internalType": "bytes32",
              "name": "gasFees",
              "type": "bytes32"
            },
            {
              "internalType": "bytes",
              "name": "paymasterAndData",
              "type": "bytes"
            },
            {
              "internalType": "bytes",
              "name": "signature",
              "type": "bytes"
            }
          ],
          "internalType": "struct PackedUserOperation",
          "name": "userOp",
          "type": "tuple"
        },
        {
          "internalType": "bytes32",
          "name": "userOpHash",
          "type": "bytes32"
        },
        {
          "internalType": "uint256",
          "name": "missingAccountFunds",
          "type": "uint256"
        }
      ],
      "name": "validateUserOp",
      "outputs": [
        {
          "internalType": "uint256",
          "name": "",
          "type": "uint256"
        }
      ],
      "stateMutability": "nonpayable",
      "type": "function"
    },
    {
      "stateMutability": "payable",
      "type": "receive"
    }
  ],
  "bytecode": "0x610160604052348015610010575f5ffd5b50604080518082018252600e81526d135bd91d5b185c9058d8dbdd5b9d60921b602080830191909152825180840190935260018352603160f81b9083015290610059825f610102565b61012052610068816001610102565b61014052815160208084019190912060e052815190820120610100524660a0526100f460e05161010051604080517f8b73c3c69bb8fe3d512ecc4cf759cc79239f7b179b0ffacaa9a75d522b39400f60208201529081019290925260608201524660808201523060a08201525f9060c00160405160208183030381529060405280519060200120905090565b60805250503060c052610324565b5f60208351101561011d5761011683610134565b905061012e565b816101288482610212565b5060ff90505b92915050565b5f5f829050601f81511115610167578260405163305a27a960e01b815260040161015e91906102cc565b60405180910390fd5b805161017282610301565b179392505050565b634e487b7160e01b5f52604160045260245ffd5b600181811c908216806101a257607f821691505b6020821081036101c057634e487b7160e01b5f52602260045260245ffd5b50919050565b601f82111561020d57805f5260205f20601f840160051c810160208510156101eb5750805b601f840160051c820191505b8181101561020a575f81556001016101f7565b50505b505050565b81516001600160401b0381111561022b5761022b61017a565b61023f81610239845461018e565b846101c6565b6020601f821160018114610271575f831561025a5750848201515b5f19600385901b1c1916600184901b17845561020a565b5f84815260208120601f198516915b828110156102a05787850151825560209485019460019092019101610280565b50848210156102bd57868401515f19600387901b60f8161c191681555b50505050600190811b01905550565b602081525f82518060208401528060208501604085015e5f604082850101526040601f19601f83011684010191505092915050565b805160208083015191908110156101c0575f1960209190910360031b1b16919050565b60805160a05160c05160e051610100516101205161014051612efa6103755f395f610a9301525f610a6701525f61186101525f61183901525f61179401525f6117be01525f6117e80152612efa5ff3fe60806040526004361061010c575f3560e01c8063a71763a811610094578063d087d28811610063578063d087d28814610328578063d691c9641461033c578063e9ae5c531461035c578063f23a6e611461036f578063f2dc691d1461039a57610113565b8063a71763a814610295578063b0d691fe146102b4578063bc197c81146102de578063d03c79141461030957610113565b806319822f7c116100db57806319822f7c146101e05780633e1b08121461020d57806384b0196e1461022c5780639517e29f146102535780639cfd7cff1461027457610113565b806301ffc9a71461012b578063112d3a7d1461015f578063150b7a021461017e5780631626ba7e146101c157610113565b3661011357005b5f36606061011f6103b9565b80519350602001915050f35b348015610136575f5ffd5b5061014a6101453660046123c7565b6104ad565b60405190151581526020015b60405180910390f35b34801561016a575f5ffd5b5061014a610179366004612441565b6104e3565b348015610189575f5ffd5b506101a8610198366004612545565b630a85bd0160e11b949350505050565b6040516001600160e01b03199091168152602001610156565b3480156101cc575f5ffd5b506101a86101db3660046125a8565b610596565b3480156101eb575f5ffd5b506101ff6101fa3660046125ef565b6105d2565b604051908152602001610156565b348015610218575f5ffd5b506101ff61022736600461263d565b6105f1565b348015610237575f5ffd5b5061024061067a565b6040516101569796959493929190612691565b34801561025e575f5ffd5b5061027261026d366004612441565b6106bc565b005b34801561027f575f5ffd5b5061028861070a565b6040516101569190612727565b3480156102a0575f5ffd5b506102726102af366004612441565b61072a565b3480156102bf575f5ffd5b506040516f71727de22e5e9d8baf0edac6f37da0328152602001610156565b3480156102e9575f5ffd5b506101a86102f83660046127ae565b63bc197c8160e01b95945050505050565b348015610314575f5ffd5b5061014a61032336600461285a565b610772565b348015610333575f5ffd5b506101ff6107e2565b61034f61034a3660046125a8565b6107f1565b6040516101569190612871565b61027261036a3660046125a8565b61081b565b34801561037a575f5ffd5b506101a86103893660046128d4565b63f23a6e6160e01b95945050505050565b3480156103a5575f5ffd5b5061014a6103b436600461285a565b61082e565b60605f6103d05f356001600160e01b03191661084b565b90506001600160e01b03195f35166001600160a01b0382166104175760405163af5a720360e01b81526001600160e01b031990911660048201526024015b60405180910390fd5b505f5f826001600160a01b0316345f363360405160200161043a93929190612927565b60408051601f19818403018152908290526104549161295f565b5f6040518083038185875af1925050503d805f811461048e576040519150601f19603f3d011682016040523d82523d5f602084013e610493565b606091505b509150915081156104a5579392505050565b805160208201fd5b5f6001600160e01b03198216630271189760e51b14806104dd57506301ffc9a760e01b6001600160e01b03198316145b92915050565b5f6001850361050e576001600160a01b0384165f9081526003602052604090205415155b905061058e565b60028503610535576001600160a01b0384165f908152600560205260409020541515610507565b6003850361058b576001600160a01b03841660065f610557600482878961296a565b61056091612991565b6001600160e01b031916815260208101919091526040015f20546001600160a01b031614905061058e565b505f5b949350505050565b5f5f6105a385858561086f565b90506001600160e01b0319808216146105bc57806105c7565b6105c78585856108ec565b9150505b9392505050565b5f6105db6109c5565b5f6105e68585610a04565b905061058e83610a0f565b5f6f71727de22e5e9d8baf0edac6f37da032604051631aab3f0d60e11b81523060048201526001600160c01b03841660248201526001600160a01b0391909116906335567e1a90604401602060405180830381865afa158015610656573d5f5f3e3d5ffd5b505050506040513d601f19601f820116820180604052508101906104dd91906129c7565b5f6060805f5f5f606061068b610a60565b610693610a8c565b604080515f80825260208201909252600f60f81b9b939a50919850469750309650945092509050565b6106c4610ab9565b610704848484848080601f0160208091040260200160405190810160405280939291908181526020018383808284375f92019190915250610b0c92505050565b50505050565b6060604051806060016040528060378152602001612e8e60379139905090565b610732610ab9565b610704848484848080601f0160208091040260200160405190810160405280939291908181526020018383808284375f92019190915250610d7692505050565b5f5f5f61077e84610f10565b505091509150610791825f60f81b610f4e565b806107a557506107a582600160f81b610f4e565b806107bd57506107bd826001600160f81b0319610f4e565b801561058e57506107ce815f610f4e565b8061058e575061058e81600160f81b610f4e565b5f6107ec5f6105f1565b905090565b606060025f8061080383338484610f60565b61080e878787610fa7565b93505b5050509392505050565b610823610ab9565b610704838383610fa7565b5f600182148061083e5750600282145b806104dd57505060031490565b6001600160e01b0319165f908152600660205260409020546001600160a01b031690565b5f61087b848484611045565b8061088c575061088c848484611131565b6108dc577f7739773977397739773977397739773977397739773977397739773977397739841480156108bd575081155b6108cf576001600160e01b031961058e565b637739000160e01b61058e565b630b135d3f60e11b949350505050565b5f601482106109b4575f365f61090286866111a3565b919450925090506109166001845f806104e3565b156109b057604051637aa8f17760e11b81526001600160a01b0384169063f551e2ee9061094d9030908b9087908790600401612a06565b602060405180830381865afa925050508015610986575060408051601f3d908101601f1916820190925261098391810190612a2d565b60015b156109b0576374eca2c160e11b6001600160e01b03198216016109ae5793506105cb92505050565b505b5050505b506001600160e01b03199392505050565b336f71727de22e5e9d8baf0edac6f37da0328114610a0157604051637cf8632b60e01b81526001600160a01b038216600482015260240161040e565b50565b5f6105cb83836111da565b8015610a01576040515f90339083908381818185875af1925050503d805f8114610a54576040519150601f19603f3d011682016040523d82523d5f602084013e610a59565b606091505b5050505050565b60606107ec7f00000000000000000000000000000000000000000000000000000000000000005f61127e565b60606107ec7f0000000000000000000000000000000000000000000000000000000000000000600161127e565b33308114801590610ae357506001600160a01b0381166f71727de22e5e9d8baf0edac6f37da03214155b15610a0157604051637cf8632b60e01b81526001600160a01b038216600482015260240161040e565b610b158361082e565b8390610b37576040516360fa2b2360e01b815260040161040e91815260200190565b5060405163ecd0596160e01b8152600481018490526001600160a01b0383169063ecd0596190602401602060405180830381865afa158015610b7b573d5f5f3e3d5ffd5b505050506040513d601f19601f82011682018060405250810190610b9f9190612a48565b83839091610bd257604051638f89476f60e01b815260048101929092526001600160a01b0316602482015260440161040e565b505060018303610c2157610be7600283611327565b83839091610c1a576040516395d48a5b60e01b815260048101929092526001600160a01b0316602482015260440161040e565b5050610cd5565b60028303610c3457610be7600483611327565b60038303610cd5575f610c468261133b565b6001600160e01b031982165f90815260066020526040902054909350909150849084906001600160a01b031615610ca2576040516395d48a5b60e01b815260048101929092526001600160a01b0316602482015260440161040e565b50506001600160e01b0319165f90815260066020526040902080546001600160a01b0319166001600160a01b0384161790555b6040516306d61fe760e41b81526001600160a01b03831690636d61fe7090610d01908490600401612727565b5f604051808303815f87803b158015610d18575f5ffd5b505af1158015610d2a573d5f5f3e3d5ffd5b5050604080518681526001600160a01b03861660208201527fd21d0b289f126c4b473ea641963e766833c2f13866e4ff480abd787c100ef12393500190505b60405180910390a1505050565b60018303610dc357610d8960028361135b565b83839091610dbc57604051631343d68d60e01b815260048101929092526001600160a01b0316602482015260440161040e565b5050610e78565b60028303610dd657610d8960048361135b565b60038303610e78575f610de88261133b565b925090506001600160a01b038316610dff8261084b565b6001600160a01b0316148015610e1d57506001600160a01b03831615155b84849091610e5057604051631343d68d60e01b815260048101929092526001600160a01b0316602482015260440161040e565b50506001600160e01b0319165f90815260066020526040902080546001600160a01b03191690555b604051638a91b0e360e01b81526001600160a01b03831690638a91b0e390610ea4908490600401612727565b5f604051808303815f87803b158015610ebb575f5ffd5b505af1158015610ecd573d5f5f3e3d5ffd5b5050604080518681526001600160a01b03861660208201527f341347516a9de374859dfda710fa4828b2d48cb57d4fbe4c1149612b8e02276e9350019050610d69565b5f5f5f5f610f1e855f61136f565b610f2986600161136f565b610f348760066113a7565b610f3f88600a6113df565b93509350935093509193509193565b6001600160f81b031990811691161490565b610f6c848484846104e3565b84849091610f9f57604051631343d68d60e01b815260048101929092526001600160a01b0316602482015260440161040e565b505050505050565b60605f5f610fb486610f10565b505091509150610fc7825f60f81b610f4e565b15610fe057610fd785858361141a565b925050506105cb565b610fee82600160f81b610f4e565b15610ffe57610fd7858583611496565b611010826001600160f81b0319610f4e565b1561102057610fd78585836115bc565b6040516358df354b60e11b81526001600160f81b03198316600482015260240161040e565b5f365f5f5f365f6110568989611632565b9550955095509550955095505f5f5f5f5f61106f61067a565b50955095509550955095505061108e888a61172b90919063ffffffff16565b8f14801561109b57508515155b801561111e575061111e61111761111089898c8a805190602001208a805190602001208a8a8a6040516020016110fc959493929190948552602085019390935260408401919091526001600160a01b03166060830152608082015260a00190565b60405160208183030381529060405261174a565b8b9061172b565b8c8c61177c565b9f9e505050505050505050505050505050565b5f61058e61119c61118e86604080517f983e65e5148e570cd828ead231ee759a8d7958721a768f93bc4483ba005c32de60208201529081018290525f90606001604051602081830303815290604052805190602001209050919050565b611196611788565b9061172b565b848461177c565b5f36816111b3601482868861296a565b6111bc91612a67565b60601c6111cc856014818961296a565b9250925092505b9250925092565b5f5f6111e5846118b1565b90506111f46001825f806104e3565b6112075761120284846118c9565b61058e565b806001600160a01b031663970032038561122187876118fd565b6040518363ffffffff1660e01b815260040161123e929190612ade565b6020604051808303815f875af115801561125a573d5f5f3e3d5ffd5b505050506040513d601f19601f8201168201806040525081019061058e91906129c7565b606060ff83146112985761129183611a1a565b90506104dd565b8180546112a490612be1565b80601f01602080910402602001604051908101604052809291908181526020018280546112d090612be1565b801561131b5780601f106112f25761010080835404028352916020019161131b565b820191905f5260205f20905b8154815290600101906020018083116112fe57829003601f168201915b505050505090506104dd565b5f6105cb836001600160a01b038416611a57565b5f606061134783612c19565b611352846004611aa3565b91509150915091565b5f6105cb836001600160a01b038416611ab1565b5f601f8260ff16111561139557604051631dd4bb1b60e11b815260040160405180910390fd5b506008021b6001600160f81b03191690565b5f601c8260ff1611156113cd57604051631dd4bb1b60e11b815260040160405180910390fd5b506008021b6001600160e01b03191690565b5f600a8260ff16111561140557604051631dd4bb1b60e11b815260040160405180910390fd5b506008021b69ffffffffffffffffffff191690565b60605f5f365f61142a8888611b9b565b6040805160018082528183019092529498509296509094509250816020015b606081526020019060019003908161144957905050945061146e5f8786868686611beb565b855f8151811061148057611480612c57565b6020026020010181905250505050509392505050565b6060365f6114a48686611c5a565b9092509050806001600160401b038111156114c1576114c1612496565b6040519080825280602002602001820160405280156114f457816020015b60608152602001906001900390816114df5790505b5092505f5b8181101561081157611597818685858581811061151857611518612c57565b905060200281019061152a9190612c6b565b611538906020810190612c89565b86868681811061154a5761154a612c57565b905060200281019061155c9190612c6b565b6020013587878781811061157257611572612c57565b90506020028101906115849190612c6b565b611592906040810190612ca2565b611beb565b8482815181106115a9576115a9612c57565b60209081029190910101526001016114f9565b60605f365f6115cb8787611d1f565b6040805160018082528183019092529396509194509250816020015b60608152602001906001900390816115e757905050935061160b5f86858585611d55565b845f8151811061161d5761161d612c57565b60200260200101819052505050509392505050565b365f8080838186600481101561165a57505f9550859450849350839250829150819050611721565b60011981015f61166c8a83818e61296a565b61167591612ce4565b60f01c9050604081018210156116a057505f9750879650869550859450849350839250611721915050565b5f81830390505f6020820390505f6020820390508d8d5f9083926116c69392919061296a565b9b509b508d8d829084926116dc9392919061296a565b6116e591612d1a565b99508d8d839085926116f99392919061296a565b61170291612d1a565b98508d8d849087926117169392919061296a565b975097505050505050505b9295509295509295565b60405161190160f01b8152600281019290925260228201526042902090565b5f365f365f6117598989611dcd565b935093509350935061176f848484848b8b611f44565b9998505050505050505050565b5f61058e848484611f93565b5f306001600160a01b037f0000000000000000000000000000000000000000000000000000000000000000161480156117e057507f000000000000000000000000000000000000000000000000000000000000000046145b1561180a57507f000000000000000000000000000000000000000000000000000000000000000090565b6107ec604080517f8b73c3c69bb8fe3d512ecc4cf759cc79239f7b179b0ffacaa9a75d522b39400f60208201527f0000000000000000000000000000000000000000000000000000000000000000918101919091527f000000000000000000000000000000000000000000000000000000000000000060608201524660808201523060a08201525f9060c00160405160208183030381529060405280519060200120905090565b5f6118c060208301358261200d565b60601c92915050565b5f6118ea6118d784846118fd565b6118e5610100860186612ca2565b61177c565b6118f55760016105cb565b505f92915050565b5f6105cb7f29a0bca4af4be3421398da00295e58e6d7de38cb492214754cb6a47507dd6f8e61192f6020860186612c89565b60208601356119416040880188612ca2565b60405161194f929190612d37565b6040519081900390206119656060890189612ca2565b604051611973929190612d37565b604051908190039020608089013560a08a013560c08b013561199860e08d018d612ca2565b6040516119a6929190612d37565b60408051918290038220602083019a909a526001600160a01b03909816978101979097526060870195909552608086019390935260a085019190915260c084015260e08301526101008201526101208101919091526101400160405160208183030381529060405280519060200120612045565b60605f611a2683612057565b6040805160208082528183019092529192505f91906020820181803683375050509182525060208101929092525090565b5f818152600183016020526040812054611a9c57508154600181810184555f8481526020808220909301849055845484825282860190935260409020919091556104dd565b505f6104dd565b60606105cb8383855161207e565b5f8181526001830160205260408120548015611b8b575f611ad3600183612d5a565b85549091505f90611ae690600190612d5a565b9050808214611b45575f865f018281548110611b0457611b04612c57565b905f5260205f200154905080875f018481548110611b2457611b24612c57565b5f918252602080832090910192909255918252600188019052604090208390555b8554869080611b5657611b56612d6d565b600190038181905f5260205f20015f90559055856001015f8681526020019081526020015f205f9055600193505050506104dd565b5f9150506104dd565b5092915050565b5f803681611bac601482878961296a565b611bb591612a67565b60601c9350611bc860346014878961296a565b611bd191612d1a565b9250611be0856034818961296a565b949793965094505050565b60605f5f866001600160a01b0316868686604051611c0a929190612d37565b5f6040518083038185875af1925050503d805f8114611c44576040519150601f19603f3d011682016040523d82523d5f602084013e611c49565b606091505b509150915061176f89898484612101565b365f826020811015611c7f5760405163eb0bcc5d60e01b815260040160405180910390fd5b5f611c8d602082878961296a565b611c9691612d1a565b9050601f198201811115611cbd5760405163eb0bcc5d60e01b815260040160405180910390fd5b5f611ccd6020830183888a61296a565b611cd691612d1a565b90506001600160401b03811180611cf4575080602002602083850303105b15611d125760405163eb0bcc5d60e01b815260040160405180910390fd5b9501602001959350505050565b5f3681611d2f601482868861296a565b611d3891612a67565b60601c9250611d4a846014818861296a565b915091509250925092565b60605f5f856001600160a01b03168585604051611d73929190612d37565b5f60405180830381855af49150503d805f8114611dab576040519150601f19603f3d011682016040523d82523d5f602084013e611db0565b606091505b5091509150611dc188888484612101565b98975050505050505050565b365f818185858015611f2c57602960f81b8282611deb600182612d5a565b818110611dfa57611dfa612c57565b9050013560f81c60f81b6001600160f81b03191603611e9b575f5b81811015611e95575f838383818110611e3057611e30612c57565b909101356001600160f81b031916915050601b60fb1b8101611e7857815f03611e595750611e95565b611e65825f858761296a565b8b8b975097509750975050505050611f3b565b611e81816121a6565b15611e8c5750611e95565b50600101611e15565b50611f2c565b805b8015611f2a575f8383611eb1600185612d5a565b818110611ec057611ec0612c57565b909101356001600160f81b03191691505060d760f81b8101611f0557611ee88383818761296a565b611ef4845f878961296a565b975097509750975050505050611f3b565b611f0e816121a6565b15611f195750611f2a565b50611f2381612d81565b9050611e9d565b505b5f805f80955095509550955050505b92959194509250565b5f8515611f8657611f5787878787612218565b8383604051602001611f6b93929190612d96565b60405160208183030381529060405280519060200120611f88565b5f5b979650505050505050565b5f5f5f611fd58686868080601f0160208091040260200160405190810160405280939291908181526020018383808284375f9201919091525061225092505050565b509092509050306001600160a01b03831614801561200357505f81600381111561200157612001612db6565b145b9695505050505050565b5f600c8260ff16111561203357604051631dd4bb1b60e11b815260040160405180910390fd5b506008021b6001600160601b03191690565b5f6104dd612051611788565b8361172b565b5f60ff8216601f8111156104dd57604051632cd44ac360e21b815260040160405180910390fd5b825160609061208d8382612296565b92506120998484612296565b93505f6120a68585612d5a565b6001600160401b038111156120bd576120bd612496565b6040519080825280601f01601f1916602001820160405280156120e7576020820181803683370190505b509050848403602086018701602083015e95945050505050565b606061210d845f610f4e565b156121225761211c83836122a5565b5061219e565b61213084600160f81b610f4e565b156121795782612174577f2eea2f51f83910481f4b5ba28b7003a6e045d4b59f67dfff8d4c901194050089858360405161216b929190612dca565b60405180910390a15b61219e565b6040516323a2408560e01b81526001600160f81b03198516600482015260240161040e565b509392505050565b5f6001600160f81b0319821615806121cb57506001600160f81b03198216600160fd1b145b806121e357506001600160f81b03198216600b60fa1b145b806121fb57506001600160f81b03198216600560fb1b145b806104dd57506001600160f81b03198216602960f81b1492915050565b5f848484846040516020016122309493929190612de2565b604051602081830303815290604052805190602001209050949350505050565b5f5f5f8351604103612287576020840151604085015160608601515f1a612279888285856122c1565b9550955095505050506111d3565b505081515f91506002906111d3565b5f8282188284100282186105cb565b6060826122ba576122b582612389565b6104dd565b50806104dd565b5f80807f7fffffffffffffffffffffffffffffff5d576e7357a4501ddfe92f46681b20a08411156122fa57505f9150600390508261237f565b604080515f808252602082018084528a905260ff891692820192909252606081018790526080810186905260019060a0016020604051602081039080840390855afa15801561234b573d5f5f3e3d5ffd5b5050604051601f1901519150506001600160a01b03811661237657505f92506001915082905061237f565b92505f91508190505b9450945094915050565b8051156123995780518082602001fd5b60405163d6bda27560e01b815260040160405180910390fd5b6001600160e01b031981168114610a01575f5ffd5b5f602082840312156123d7575f5ffd5b81356105cb816123b2565b80356001600160a01b03811681146123f8575f5ffd5b919050565b5f5f83601f84011261240d575f5ffd5b5081356001600160401b03811115612423575f5ffd5b60208301915083602082850101111561243a575f5ffd5b9250929050565b5f5f5f5f60608587031215612454575f5ffd5b84359350612464602086016123e2565b925060408501356001600160401b0381111561247e575f5ffd5b61248a878288016123fd565b95989497509550505050565b634e487b7160e01b5f52604160045260245ffd5b604051601f8201601f191681016001600160401b03811182821017156124d2576124d2612496565b604052919050565b5f82601f8301126124e9575f5ffd5b81356001600160401b0381111561250257612502612496565b612515601f8201601f19166020016124aa565b818152846020838601011115612529575f5ffd5b816020850160208301375f918101602001919091529392505050565b5f5f5f5f60808587031215612558575f5ffd5b612561856123e2565b935061256f602086016123e2565b92506040850135915060608501356001600160401b03811115612590575f5ffd5b61259c878288016124da565b91505092959194509250565b5f5f5f604084860312156125ba575f5ffd5b8335925060208401356001600160401b038111156125d6575f5ffd5b6125e2868287016123fd565b9497909650939450505050565b5f5f5f60608486031215612601575f5ffd5b83356001600160401b03811115612616575f5ffd5b84016101208187031215612628575f5ffd5b95602085013595506040909401359392505050565b5f6020828403121561264d575f5ffd5b81356001600160c01b03811681146105cb575f5ffd5b5f81518084528060208401602086015e5f602082860101526020601f19601f83011685010191505092915050565b60ff60f81b8816815260e060208201525f6126af60e0830189612663565b82810360408401526126c18189612663565b606084018890526001600160a01b038716608085015260a0840186905283810360c0850152845180825260208087019350909101905f5b818110156127165783518352602093840193909201916001016126f8565b50909b9a5050505050505050505050565b602081525f6105cb6020830184612663565b5f82601f830112612748575f5ffd5b81356001600160401b0381111561276157612761612496565b8060051b612771602082016124aa565b9182526020818501810192908101908684111561278c575f5ffd5b6020860192505b83831015612003578235825260209283019290910190612793565b5f5f5f5f5f60a086880312156127c2575f5ffd5b6127cb866123e2565b94506127d9602087016123e2565b935060408601356001600160401b038111156127f3575f5ffd5b6127ff88828901612739565b93505060608601356001600160401b0381111561281a575f5ffd5b61282688828901612739565b92505060808601356001600160401b03811115612841575f5ffd5b61284d888289016124da565b9150509295509295909350565b5f6020828403121561286a575f5ffd5b5035919050565b5f602082016020835280845180835260408501915060408160051b8601019250602086015f5b828110156128c857603f198786030184526128b3858351612663565b94506020938401939190910190600101612897565b50929695505050505050565b5f5f5f5f5f60a086880312156128e8575f5ffd5b6128f1866123e2565b94506128ff602087016123e2565b9350604086013592506060860135915060808601356001600160401b03811115612841575f5ffd5b8284823760609190911b6001600160601b0319169101908152601401919050565b5f81518060208401855e5f93019283525090919050565b5f6105cb8284612948565b5f5f85851115612978575f5ffd5b83861115612984575f5ffd5b5050820193919092039150565b80356001600160e01b03198116906004841015611b94576001600160e01b031960049490940360031b84901b1690921692915050565b5f602082840312156129d7575f5ffd5b5051919050565b81835281816020850137505f828201602090810191909152601f909101601f19169091010190565b60018060a01b0385168152836020820152606060408201525f6120036060830184866129de565b5f60208284031215612a3d575f5ffd5b81516105cb816123b2565b5f60208284031215612a58575f5ffd5b815180151581146105cb575f5ffd5b80356001600160601b03198116906014841015611b94576001600160601b031960149490940360031b84901b1690921692915050565b5f5f8335601e19843603018112612ab2575f5ffd5b83016020810192503590506001600160401b03811115612ad0575f5ffd5b80360382131561243a575f5ffd5b60408152612aff60408201612af2856123e2565b6001600160a01b03169052565b602083013560608201525f612b176040850185612a9d565b6101206080850152612b2e610160850182846129de565b915050612b3e6060860186612a9d565b848303603f190160a0860152612b558382846129de565b608088013560c08781019190915260a089013560e08089019190915290890135610100880152909350612b8d92508701905086612a9d565b848303603f1901610120860152612ba58382846129de565b92505050612bb7610100860186612a9d565b848303603f1901610140860152612bcf8382846129de565b93505050508260208301529392505050565b600181811c90821680612bf557607f821691505b602082108103612c1357634e487b7160e01b5f52602260045260245ffd5b50919050565b805160208201516001600160e01b0319811691906004821015612c50576001600160e01b0319600483900360031b81901b82161692505b5050919050565b634e487b7160e01b5f52603260045260245ffd5b5f8235605e19833603018112612c7f575f5ffd5b9190910192915050565b5f60208284031215612c99575f5ffd5b6105cb826123e2565b5f5f8335601e19843603018112612cb7575f5ffd5b8301803591506001600160401b03821115612cd0575f5ffd5b60200191503681900382131561243a575f5ffd5b80356001600160f01b03198116906002841015611b94576001600160f01b031960029490940360031b84901b1690921692915050565b803560208310156104dd575f19602084900360031b1b1692915050565b818382375f9101908152919050565b634e487b7160e01b5f52601160045260245ffd5b818103818111156104dd576104dd612d46565b634e487b7160e01b5f52603160045260245ffd5b5f81612d8f57612d8f612d46565b505f190190565b8381528260208201525f612dad6040830184612948565b95945050505050565b634e487b7160e01b5f52602160045260245ffd5b828152604060208201525f61058e6040830184612663565b6d0a8f2e0cac888c2e8c2a6d2cedc560931b81528385600e8301375f8482017f20636f6e74656e74732c737472696e67206e616d652c737472696e6720766572600e8201527f73696f6e2c75696e7432353620636861696e49642c6164647265737320766572602e8201527f696679696e67436f6e74726163742c627974657333322073616c742900000000604e8201528385606a8301375f9301606a01928352509094935050505056fe406f70656e7a657070656c696e2f636f6d6d756e6974792d636f6e7472616374732e4163636f756e74455243373537392e76302e302e30a264697066735822122001afb8a72d7382a342442ee32949e5906bd5f742b5b8d716bb238f8c8a9ffc1b64736f6c634300081c0033",
  "linkReferences": {},
  "deployedLinkReferences": {}
}