{
  "address": "0x3E3E97AC0436F3e20E921b2DE5Cb954A3Dd18828",
  "abi": [
    {
      "inputs": [],
      "stateMutability": "nonpayable",
      "type": "constructor"
    },
    {
      "inputs": [
        {
          "internalType": "address",
          "name": "sender",
          "type": "address"
        }
      ],
      "name": "AccountUnauthorized",
      "type": "error"
    },
    {
      "inputs": [
        {
          "internalType": "uint256",
          "name": "moduleTypeId",
          "type": "uint256"
        },
        {
          "internalType": "address",
          "name": "module",
          "type": "address"
        }
      ],
      "name": "ERC7579AlreadyInstalledModule",
      "type": "error"
    },
    {
      "inputs": [],
      "name": "ERC7579DecodingError",
      "type": "error"
    },
    {
      "inputs": [
        {
          "internalType": "uint256",
          "name": "moduleTypeId",
          "type": "uint256"
        },
        {
          "internalType": "address",
          "name": "module",
          "type": "address"
        }
      ],
      "name": "ERC7579MismatchedModuleTypeId",
      "type": "error"
    },
    {
      "inputs": [
        {
          "internalType": "bytes4",
          "name": "selector",
          "type": "bytes4"
        }
      ],
      "name": "ERC7579MissingFallbackHandler",
      "type": "error"
    },
    {
      "inputs": [
        {
          "internalType": "uint256",
          "name": "moduleTypeId",
          "type": "uint256"
        },
        {
          "internalType": "address",
          "name": "module",
          "type": "address"
        }
      ],
      "name": "ERC7579UninstalledModule",
      "type": "error"
    },
    {
      "inputs": [
        {
          "internalType": "CallType",
          "name": "callType",
          "type": "bytes1"
        }
      ],
      "name": "ERC7579UnsupportedCallType",
      "type": "error"
    },
    {
      "inputs": [
        {
          "internalType": "ExecType",
          "name": "execType",
          "type": "bytes1"
        }
      ],
      "name": "ERC7579UnsupportedExecType",
      "type": "error"
    },
    {
      "inputs": [
        {
          "internalType": "uint256",
          "name": "moduleTypeId",
          "type": "uint256"
        }
      ],
      "name": "ERC7579UnsupportedModuleType",
      "type": "error"
    },
    {
      "inputs": [],
      "name": "FailedCall",
      "type": "error"
    },
    {
      "inputs": [],
      "name": "InvalidShortString",
      "type": "error"
    },
    {
      "inputs": [],
      "name": "OutOfRangeAccess",
      "type": "error"
    },
    {
      "inputs": [
        {
          "internalType": "string",
          "name": "str",
          "type": "string"
        }
      ],
      "name": "StringTooLong",
      "type": "error"
    },
    {
      "anonymous": false,
      "inputs": [],
      "name": "EIP712DomainChanged",
      "type": "event"
    },
    {
      "anonymous": false,
      "inputs": [
        {
          "indexed": false,
          "internalType": "uint256",
          "name": "batchExecutionIndex",
          "type": "uint256"
        },
        {
          "indexed": false,
          "internalType": "bytes",
          "name": "returndata",
          "type": "bytes"
        }
      ],
      "name": "ERC7579TryExecuteFail",
      "type": "event"
    },
    {
      "anonymous": false,
      "inputs": [
        {
          "indexed": false,
          "internalType": "uint256",
          "name": "moduleTypeId",
          "type": "uint256"
        },
        {
          "indexed": false,
          "internalType": "address",
          "name": "module",
          "type": "address"
        }
      ],
      "name": "ModuleInstalled",
      "type": "event"
    },
    {
      "anonymous": false,
      "inputs": [
        {
          "indexed": false,
          "internalType": "uint256",
          "name": "moduleTypeId",
          "type": "uint256"
        },
        {
          "indexed": false,
          "internalType": "address",
          "name": "module",
          "type": "address"
        }
      ],
      "name": "ModuleUninstalled",
      "type": "event"
    },
    {
      "stateMutability": "payable",
      "type": "fallback"
    },
    {
      "inputs": [],
      "name": "accountId",
      "outputs": [
        {
          "internalType": "string",
          "name": "",
          "type": "string"
        }
      ],
      "stateMutability": "view",
      "type": "function"
    },
    {
      "inputs": [],
      "name": "eip712Domain",
      "outputs": [
        {
          "internalType": "bytes1",
          "name": "fields",
          "type": "bytes1"
        },
        {
          "internalType": "string",
          "name": "name",
          "type": "string"
        },
        {
          "internalType": "string",
          "name": "version",
          "type": "string"
        },
        {
          "internalType": "uint256",
          "name": "chainId",
          "type": "uint256"
        },
        {
          "internalType": "address",
          "name": "verifyingContract",
          "type": "address"
        },
        {
          "internalType": "bytes32",
          "name": "salt",
          "type": "bytes32"
        },
        {
          "internalType": "uint256[]",
          "name": "extensions",
          "type": "uint256[]"
        }
      ],
      "stateMutability": "view",
      "type": "function"
    },
    {
      "inputs": [],
      "name": "entryPoint",
      "outputs": [
        {
          "internalType": "contract IEntryPoint",
          "name": "",
          "type": "address"
        }
      ],
      "stateMutability": "view",
      "type": "function"
    },
    {
      "inputs": [
        {
          "internalType": "bytes32",
          "name": "mode",
          "type": "bytes32"
        },
        {
          "internalType": "bytes",
          "name": "executionCalldata",
          "type": "bytes"
        }
      ],
      "name": "execute",
      "outputs": [],
      "stateMutability": "payable",
      "type": "function"
    },
    {
      "inputs": [
        {
          "internalType": "bytes32",
          "name": "mode",
          "type": "bytes32"
        },
        {
          "internalType": "bytes",
          "name": "executionCalldata",
          "type": "bytes"
        }
      ],
      "name": "executeFromExecutor",
      "outputs": [
        {
          "internalType": "bytes[]",
          "name": "returnData",
          "type": "bytes[]"
        }
      ],
      "stateMutability": "payable",
      "type": "function"
    },
    {
      "inputs": [
        {
          "internalType": "uint192",
          "name": "key",
          "type": "uint192"
        }
      ],
      "name": "getNonce",
      "outputs": [
        {
          "internalType": "uint256",
          "name": "",
          "type": "uint256"
        }
      ],
      "stateMutability": "view",
      "type": "function"
    },
    {
      "inputs": [],
      "name": "getNonce",
      "outputs": [
        {
          "internalType": "uint256",
          "name": "",
          "type": "uint256"
        }
      ],
      "stateMutability": "view",
      "type": "function"
    },
    {
      "inputs": [],
      "name": "getNumber",
      "outputs": [
        {
          "internalType": "uint256",
          "name": "",
          "type": "uint256"
        }
      ],
      "stateMutability": "pure",
      "type": "function"
    },
    {
      "inputs": [
        {
          "internalType": "uint256",
          "name": "moduleTypeId",
          "type": "uint256"
        },
        {
          "internalType": "address",
          "name": "module",
          "type": "address"
        },
        {
          "internalType": "bytes",
          "name": "initData",
          "type": "bytes"
        }
      ],
      "name": "installModule",
      "outputs": [],
      "stateMutability": "nonpayable",
      "type": "function"
    },
    {
      "inputs": [
        {
          "internalType": "uint256",
          "name": "moduleTypeId",
          "type": "uint256"
        },
        {
          "internalType": "address",
          "name": "module",
          "type": "address"
        },
        {
          "internalType": "bytes",
          "name": "additionalContext",
          "type": "bytes"
        }
      ],
      "name": "isModuleInstalled",
      "outputs": [
        {
          "internalType": "bool",
          "name": "",
          "type": "bool"
        }
      ],
      "stateMutability": "view",
      "type": "function"
    },
    {
      "inputs": [
        {
          "internalType": "bytes32",
          "name": "hash",
          "type": "bytes32"
        },
        {
          "internalType": "bytes",
          "name": "signature",
          "type": "bytes"
        }
      ],
      "name": "isValidSignature",
      "outputs": [
        {
          "internalType": "bytes4",
          "name": "",
          "type": "bytes4"
        }
      ],
      "stateMutability": "view",
      "type": "function"
    },
    {
      "inputs": [
        {
          "internalType": "address",
          "name": "",
          "type": "address"
        },
        {
          "internalType": "address",
          "name": "",
          "type": "address"
        },
        {
          "internalType": "uint256[]",
          "name": "",
          "type": "uint256[]"
        },
        {
          "internalType": "uint256[]",
          "name": "",
          "type": "uint256[]"
        },
        {
          "internalType": "bytes",
          "name": "",
          "type": "bytes"
        }
      ],
      "name": "onERC1155BatchReceived",
      "outputs": [
        {
          "internalType": "bytes4",
          "name": "",
          "type": "bytes4"
        }
      ],
      "stateMutability": "nonpayable",
      "type": "function"
    },
    {
      "inputs": [
        {
          "internalType": "address",
          "name": "",
          "type": "address"
        },
        {
          "internalType": "address",
          "name": "",
          "type": "address"
        },
        {
          "internalType": "uint256",
          "name": "",
          "type": "uint256"
        },
        {
          "internalType": "uint256",
          "name": "",
          "type": "uint256"
        },
        {
          "internalType": "bytes",
          "name": "",
          "type": "bytes"
        }
      ],
      "name": "onERC1155Received",
      "outputs": [
        {
          "internalType": "bytes4",
          "name": "",
          "type": "bytes4"
        }
      ],
      "stateMutability": "nonpayable",
      "type": "function"
    },
    {
      "inputs": [
        {
          "internalType": "address",
          "name": "",
          "type": "address"
        },
        {
          "internalType": "address",
          "name": "",
          "type": "address"
        },
        {
          "internalType": "uint256",
          "name": "",
          "type": "uint256"
        },
        {
          "internalType": "bytes",
          "name": "",
          "type": "bytes"
        }
      ],
      "name": "onERC721Received",
      "outputs": [
        {
          "internalType": "bytes4",
          "name": "",
          "type": "bytes4"
        }
      ],
      "stateMutability": "nonpayable",
      "type": "function"
    },
    {
      "inputs": [
        {
          "internalType": "bytes32",
          "name": "encodedMode",
          "type": "bytes32"
        }
      ],
      "name": "supportsExecutionMode",
      "outputs": [
        {
          "internalType": "bool",
          "name": "",
          "type": "bool"
        }
      ],
      "stateMutability": "view",
      "type": "function"
    },
    {
      "inputs": [
        {
          "internalType": "bytes4",
          "name": "interfaceId",
          "type": "bytes4"
        }
      ],
      "name": "supportsInterface",
      "outputs": [
        {
          "internalType": "bool",
          "name": "",
          "type": "bool"
        }
      ],
      "stateMutability": "view",
      "type": "function"
    },
    {
      "inputs": [
        {
          "internalType": "uint256",
          "name": "moduleTypeId",
          "type": "uint256"
        }
      ],
      "name": "supportsModule",
      "outputs": [
        {
          "internalType": "bool",
          "name": "",
          "type": "bool"
        }
      ],
      "stateMutability": "view",
      "type": "function"
    },
    {
      "inputs": [
        {
          "internalType": "uint256",
          "name": "moduleTypeId",
          "type": "uint256"
        },
        {
          "internalType": "address",
          "name": "module",
          "type": "address"
        },
        {
          "internalType": "bytes",
          "name": "deInitData",
          "type": "bytes"
        }
      ],
      "name": "uninstallModule",
      "outputs": [],
      "stateMutability": "nonpayable",
      "type": "function"
    },
    {
      "inputs": [
        {
          "components": [
            {
              "internalType": "address",
              "name": "sender",
              "type": "address"
            },
            {
              "internalType": "uint256",
              "name": "nonce",
              "type": "uint256"
            },
            {
              "internalType": "bytes",
              "name": "initCode",
              "type": "bytes"
            },
            {
              "internalType": "bytes",
              "name": "callData",
              "type": "bytes"
            },
            {
              "internalType": "bytes32",
              "name": "accountGasLimits",
              "type": "bytes32"
            },
            {
              "internalType": "uint256",
              "name": "preVerificationGas",
              "type": "uint256"
            },
            {
              "internalType": "bytes32",
              "name": "gasFees",
              "type": "bytes32"
            },
            {
              "internalType": "bytes",
              "name": "paymasterAndData",
              "type": "bytes"
            },
            {
              "internalType": "bytes",
              "name": "signature",
              "type": "bytes"
            }
          ],
          "internalType": "struct PackedUserOperation",
          "name": "userOp",
          "type": "tuple"
        },
        {
          "internalType": "bytes32",
          "name": "userOpHash",
          "type": "bytes32"
        },
        {
          "internalType": "uint256",
          "name": "missingAccountFunds",
          "type": "uint256"
        }
      ],
      "name": "validateUserOp",
      "outputs": [
        {
          "internalType": "uint256",
          "name": "",
          "type": "uint256"
        }
      ],
      "stateMutability": "nonpayable",
      "type": "function"
    },
    {
      "stateMutability": "payable",
      "type": "receive"
    }
  ],
  "transactionHash": "0x42397ada85df5dc6be38dd52e6f4dbfbaf3903d2ef0d77072e7588ae3584098f",
  "args": [],
  "numDeployments": 1,
  "solcInputHash": "8a0a369fcadd648e98e006ce32d8a8df",
  "bytecode": "0x610160604052348015610010575f5ffd5b50604080518082018252600e81526d135bd91d5b185c9058d8dbdd5b9d60921b602080830191909152825180840190935260018352603160f81b9083015290610059825f610102565b61012052610068816001610102565b61014052815160208084019190912060e052815190820120610100524660a0526100f460e05161010051604080517f8b73c3c69bb8fe3d512ecc4cf759cc79239f7b179b0ffacaa9a75d522b39400f60208201529081019290925260608201524660808201523060a08201525f9060c00160405160208183030381529060405280519060200120905090565b60805250503060c052610324565b5f60208351101561011d5761011683610134565b905061012e565b816101288482610212565b5060ff90505b92915050565b5f5f829050601f81511115610167578260405163305a27a960e01b815260040161015e91906102cc565b60405180910390fd5b805161017282610301565b179392505050565b634e487b7160e01b5f52604160045260245ffd5b600181811c908216806101a257607f821691505b6020821081036101c057634e487b7160e01b5f52602260045260245ffd5b50919050565b601f82111561020d57805f5260205f20601f840160051c810160208510156101eb5750805b601f840160051c820191505b8181101561020a575f81556001016101f7565b50505b505050565b81516001600160401b0381111561022b5761022b61017a565b61023f81610239845461018e565b846101c6565b6020601f821160018114610271575f831561025a5750848201515b5f19600385901b1c1916600184901b17845561020a565b5f84815260208120601f198516915b828110156102a05787850151825560209485019460019092019101610280565b50848210156102bd57868401515f19600387901b60f8161c191681555b50505050600190811b01905550565b602081525f82518060208401528060208501604085015e5f604082850101526040601f19601f83011684010191505092915050565b805160208083015191908110156101c0575f1960209190910360031b1b16919050565b60805160a05160c05160e051610100516101205161014051612f186103755f395f610ab101525f610a8501525f61187f01525f61185701525f6117b201525f6117dc01525f6118060152612f185ff3fe608060405260043610610117575f3560e01c8063a71763a81161009f578063d691c96411610063578063d691c96414610347578063e9ae5c5314610367578063f23a6e611461037a578063f2c9ecd8146103a5578063f2dc691d146103b85761011e565b8063a71763a8146102a0578063b0d691fe146102bf578063bc197c81146102e9578063d03c791414610314578063d087d288146103335761011e565b806319822f7c116100e657806319822f7c146101eb5780633e1b08121461021857806384b0196e146102375780639517e29f1461025e5780639cfd7cff1461027f5761011e565b806301ffc9a714610136578063112d3a7d1461016a578063150b7a02146101895780631626ba7e146101cc5761011e565b3661011e57005b5f36606061012a6103d7565b80519350602001915050f35b348015610141575f5ffd5b506101556101503660046123e5565b6104cb565b60405190151581526020015b60405180910390f35b348015610175575f5ffd5b5061015561018436600461245f565b610501565b348015610194575f5ffd5b506101b36101a3366004612563565b630a85bd0160e11b949350505050565b6040516001600160e01b03199091168152602001610161565b3480156101d7575f5ffd5b506101b36101e63660046125c6565b6105b4565b3480156101f6575f5ffd5b5061020a61020536600461260d565b6105f0565b604051908152602001610161565b348015610223575f5ffd5b5061020a61023236600461265b565b61060f565b348015610242575f5ffd5b5061024b610698565b60405161016197969594939291906126af565b348015610269575f5ffd5b5061027d61027836600461245f565b6106da565b005b34801561028a575f5ffd5b50610293610728565b6040516101619190612745565b3480156102ab575f5ffd5b5061027d6102ba36600461245f565b610748565b3480156102ca575f5ffd5b506040516f71727de22e5e9d8baf0edac6f37da0328152602001610161565b3480156102f4575f5ffd5b506101b36103033660046127cc565b63bc197c8160e01b95945050505050565b34801561031f575f5ffd5b5061015561032e366004612878565b610790565b34801561033e575f5ffd5b5061020a610800565b61035a6103553660046125c6565b61080f565b604051610161919061288f565b61027d6103753660046125c6565b610839565b348015610385575f5ffd5b506101b36103943660046128f2565b63f23a6e6160e01b95945050505050565b3480156103b0575f5ffd5b50600161020a565b3480156103c3575f5ffd5b506101556103d2366004612878565b61084c565b60605f6103ee5f356001600160e01b031916610869565b90506001600160e01b03195f35166001600160a01b0382166104355760405163af5a720360e01b81526001600160e01b031990911660048201526024015b60405180910390fd5b505f5f826001600160a01b0316345f363360405160200161045893929190612945565b60408051601f19818403018152908290526104729161297d565b5f6040518083038185875af1925050503d805f81146104ac576040519150601f19603f3d011682016040523d82523d5f602084013e6104b1565b606091505b509150915081156104c3579392505050565b805160208201fd5b5f6001600160e01b03198216630271189760e51b14806104fb57506301ffc9a760e01b6001600160e01b03198316145b92915050565b5f6001850361052c576001600160a01b0384165f9081526003602052604090205415155b90506105ac565b60028503610553576001600160a01b0384165f908152600560205260409020541515610525565b600385036105a9576001600160a01b03841660065f6105756004828789612988565b61057e916129af565b6001600160e01b031916815260208101919091526040015f20546001600160a01b03161490506105ac565b505f5b949350505050565b5f5f6105c185858561088d565b90506001600160e01b0319808216146105da57806105e5565b6105e585858561090a565b9150505b9392505050565b5f6105f96109e3565b5f6106048585610a22565b90506105ac83610a2d565b5f6f71727de22e5e9d8baf0edac6f37da032604051631aab3f0d60e11b81523060048201526001600160c01b03841660248201526001600160a01b0391909116906335567e1a90604401602060405180830381865afa158015610674573d5f5f3e3d5ffd5b505050506040513d601f19601f820116820180604052508101906104fb91906129e5565b5f6060805f5f5f60606106a9610a7e565b6106b1610aaa565b604080515f80825260208201909252600f60f81b9b939a50919850469750309650945092509050565b6106e2610ad7565b610722848484848080601f0160208091040260200160405190810160405280939291908181526020018383808284375f92019190915250610b2a92505050565b50505050565b6060604051806060016040528060378152602001612eac60379139905090565b610750610ad7565b610722848484848080601f0160208091040260200160405190810160405280939291908181526020018383808284375f92019190915250610d9492505050565b5f5f5f61079c84610f2e565b5050915091506107af825f60f81b610f6c565b806107c357506107c382600160f81b610f6c565b806107db57506107db826001600160f81b0319610f6c565b80156105ac57506107ec815f610f6c565b806105ac57506105ac81600160f81b610f6c565b5f61080a5f61060f565b905090565b606060025f8061082183338484610f7e565b61082c878787610fc5565b93505b5050509392505050565b610841610ad7565b610722838383610fc5565b5f600182148061085c5750600282145b806104fb57505060031490565b6001600160e01b0319165f908152600660205260409020546001600160a01b031690565b5f610899848484611063565b806108aa57506108aa84848461114f565b6108fa577f7739773977397739773977397739773977397739773977397739773977397739841480156108db575081155b6108ed576001600160e01b03196105ac565b637739000160e01b6105ac565b630b135d3f60e11b949350505050565b5f601482106109d2575f365f61092086866111c1565b919450925090506109346001845f80610501565b156109ce57604051637aa8f17760e11b81526001600160a01b0384169063f551e2ee9061096b9030908b9087908790600401612a24565b602060405180830381865afa9250505080156109a4575060408051601f3d908101601f191682019092526109a191810190612a4b565b60015b156109ce576374eca2c160e11b6001600160e01b03198216016109cc5793506105e992505050565b505b5050505b506001600160e01b03199392505050565b336f71727de22e5e9d8baf0edac6f37da0328114610a1f57604051637cf8632b60e01b81526001600160a01b038216600482015260240161042c565b50565b5f6105e983836111f8565b8015610a1f576040515f90339083908381818185875af1925050503d805f8114610a72576040519150601f19603f3d011682016040523d82523d5f602084013e610a77565b606091505b5050505050565b606061080a7f00000000000000000000000000000000000000000000000000000000000000005f61129c565b606061080a7f0000000000000000000000000000000000000000000000000000000000000000600161129c565b33308114801590610b0157506001600160a01b0381166f71727de22e5e9d8baf0edac6f37da03214155b15610a1f57604051637cf8632b60e01b81526001600160a01b038216600482015260240161042c565b610b338361084c565b8390610b55576040516360fa2b2360e01b815260040161042c91815260200190565b5060405163ecd0596160e01b8152600481018490526001600160a01b0383169063ecd0596190602401602060405180830381865afa158015610b99573d5f5f3e3d5ffd5b505050506040513d601f19601f82011682018060405250810190610bbd9190612a66565b83839091610bf057604051638f89476f60e01b815260048101929092526001600160a01b0316602482015260440161042c565b505060018303610c3f57610c05600283611345565b83839091610c38576040516395d48a5b60e01b815260048101929092526001600160a01b0316602482015260440161042c565b5050610cf3565b60028303610c5257610c05600483611345565b60038303610cf3575f610c6482611359565b6001600160e01b031982165f90815260066020526040902054909350909150849084906001600160a01b031615610cc0576040516395d48a5b60e01b815260048101929092526001600160a01b0316602482015260440161042c565b50506001600160e01b0319165f90815260066020526040902080546001600160a01b0319166001600160a01b0384161790555b6040516306d61fe760e41b81526001600160a01b03831690636d61fe7090610d1f908490600401612745565b5f604051808303815f87803b158015610d36575f5ffd5b505af1158015610d48573d5f5f3e3d5ffd5b5050604080518681526001600160a01b03861660208201527fd21d0b289f126c4b473ea641963e766833c2f13866e4ff480abd787c100ef12393500190505b60405180910390a1505050565b60018303610de157610da7600283611379565b83839091610dda57604051631343d68d60e01b815260048101929092526001600160a01b0316602482015260440161042c565b5050610e96565b60028303610df457610da7600483611379565b60038303610e96575f610e0682611359565b925090506001600160a01b038316610e1d82610869565b6001600160a01b0316148015610e3b57506001600160a01b03831615155b84849091610e6e57604051631343d68d60e01b815260048101929092526001600160a01b0316602482015260440161042c565b50506001600160e01b0319165f90815260066020526040902080546001600160a01b03191690555b604051638a91b0e360e01b81526001600160a01b03831690638a91b0e390610ec2908490600401612745565b5f604051808303815f87803b158015610ed9575f5ffd5b505af1158015610eeb573d5f5f3e3d5ffd5b5050604080518681526001600160a01b03861660208201527f341347516a9de374859dfda710fa4828b2d48cb57d4fbe4c1149612b8e02276e9350019050610d87565b5f5f5f5f610f3c855f61138d565b610f4786600161138d565b610f528760066113c5565b610f5d88600a6113fd565b93509350935093509193509193565b6001600160f81b031990811691161490565b610f8a84848484610501565b84849091610fbd57604051631343d68d60e01b815260048101929092526001600160a01b0316602482015260440161042c565b505050505050565b60605f5f610fd286610f2e565b505091509150610fe5825f60f81b610f6c565b15610ffe57610ff5858583611438565b925050506105e9565b61100c82600160f81b610f6c565b1561101c57610ff58585836114b4565b61102e826001600160f81b0319610f6c565b1561103e57610ff58585836115da565b6040516358df354b60e11b81526001600160f81b03198316600482015260240161042c565b5f365f5f5f365f6110748989611650565b9550955095509550955095505f5f5f5f5f61108d610698565b5095509550955095509550506110ac888a61174990919063ffffffff16565b8f1480156110b957508515155b801561113c575061113c61113561112e89898c8a805190602001208a805190602001208a8a8a60405160200161111a959493929190948552602085019390935260408401919091526001600160a01b03166060830152608082015260a00190565b604051602081830303815290604052611768565b8b90611749565b8c8c61179a565b9f9e505050505050505050505050505050565b5f6105ac6111ba6111ac86604080517f983e65e5148e570cd828ead231ee759a8d7958721a768f93bc4483ba005c32de60208201529081018290525f90606001604051602081830303815290604052805190602001209050919050565b6111b46117a6565b90611749565b848461179a565b5f36816111d16014828688612988565b6111da91612a85565b60601c6111ea8560148189612988565b9250925092505b9250925092565b5f5f611203846118cf565b90506112126001825f80610501565b6112255761122084846118e7565b6105ac565b806001600160a01b031663970032038561123f878761191b565b6040518363ffffffff1660e01b815260040161125c929190612afc565b6020604051808303815f875af1158015611278573d5f5f3e3d5ffd5b505050506040513d601f19601f820116820180604052508101906105ac91906129e5565b606060ff83146112b6576112af83611a38565b90506104fb565b8180546112c290612bff565b80601f01602080910402602001604051908101604052809291908181526020018280546112ee90612bff565b80156113395780601f1061131057610100808354040283529160200191611339565b820191905f5260205f20905b81548152906001019060200180831161131c57829003601f168201915b505050505090506104fb565b5f6105e9836001600160a01b038416611a75565b5f606061136583612c37565b611370846004611ac1565b91509150915091565b5f6105e9836001600160a01b038416611acf565b5f601f8260ff1611156113b357604051631dd4bb1b60e11b815260040160405180910390fd5b506008021b6001600160f81b03191690565b5f601c8260ff1611156113eb57604051631dd4bb1b60e11b815260040160405180910390fd5b506008021b6001600160e01b03191690565b5f600a8260ff16111561142357604051631dd4bb1b60e11b815260040160405180910390fd5b506008021b69ffffffffffffffffffff191690565b60605f5f365f6114488888611bb9565b6040805160018082528183019092529498509296509094509250816020015b606081526020019060019003908161146757905050945061148c5f8786868686611c09565b855f8151811061149e5761149e612c75565b6020026020010181905250505050509392505050565b6060365f6114c28686611c78565b9092509050806001600160401b038111156114df576114df6124b4565b60405190808252806020026020018201604052801561151257816020015b60608152602001906001900390816114fd5790505b5092505f5b8181101561082f576115b5818685858581811061153657611536612c75565b90506020028101906115489190612c89565b611556906020810190612ca7565b86868681811061156857611568612c75565b905060200281019061157a9190612c89565b6020013587878781811061159057611590612c75565b90506020028101906115a29190612c89565b6115b0906040810190612cc0565b611c09565b8482815181106115c7576115c7612c75565b6020908102919091010152600101611517565b60605f365f6115e98787611d3d565b6040805160018082528183019092529396509194509250816020015b60608152602001906001900390816116055790505093506116295f86858585611d73565b845f8151811061163b5761163b612c75565b60200260200101819052505050509392505050565b365f8080838186600481101561167857505f955085945084935083925082915081905061173f565b60011981015f61168a8a83818e612988565b61169391612d02565b60f01c9050604081018210156116be57505f975087965086955085945084935083925061173f915050565b5f81830390505f6020820390505f6020820390508d8d5f9083926116e493929190612988565b9b509b508d8d829084926116fa93929190612988565b61170391612d38565b99508d8d8390859261171793929190612988565b61172091612d38565b98508d8d8490879261173493929190612988565b975097505050505050505b9295509295509295565b60405161190160f01b8152600281019290925260228201526042902090565b5f365f365f6117778989611deb565b935093509350935061178d848484848b8b611f62565b9998505050505050505050565b5f6105ac848484611fb1565b5f306001600160a01b037f0000000000000000000000000000000000000000000000000000000000000000161480156117fe57507f000000000000000000000000000000000000000000000000000000000000000046145b1561182857507f000000000000000000000000000000000000000000000000000000000000000090565b61080a604080517f8b73c3c69bb8fe3d512ecc4cf759cc79239f7b179b0ffacaa9a75d522b39400f60208201527f0000000000000000000000000000000000000000000000000000000000000000918101919091527f000000000000000000000000000000000000000000000000000000000000000060608201524660808201523060a08201525f9060c00160405160208183030381529060405280519060200120905090565b5f6118de60208301358261202b565b60601c92915050565b5f6119086118f5848461191b565b611903610100860186612cc0565b61179a565b6119135760016105e9565b505f92915050565b5f6105e97f29a0bca4af4be3421398da00295e58e6d7de38cb492214754cb6a47507dd6f8e61194d6020860186612ca7565b602086013561195f6040880188612cc0565b60405161196d929190612d55565b6040519081900390206119836060890189612cc0565b604051611991929190612d55565b604051908190039020608089013560a08a013560c08b01356119b660e08d018d612cc0565b6040516119c4929190612d55565b60408051918290038220602083019a909a526001600160a01b03909816978101979097526060870195909552608086019390935260a085019190915260c084015260e08301526101008201526101208101919091526101400160405160208183030381529060405280519060200120612063565b60605f611a4483612075565b6040805160208082528183019092529192505f91906020820181803683375050509182525060208101929092525090565b5f818152600183016020526040812054611aba57508154600181810184555f8481526020808220909301849055845484825282860190935260409020919091556104fb565b505f6104fb565b60606105e98383855161209c565b5f8181526001830160205260408120548015611ba9575f611af1600183612d78565b85549091505f90611b0490600190612d78565b9050808214611b63575f865f018281548110611b2257611b22612c75565b905f5260205f200154905080875f018481548110611b4257611b42612c75565b5f918252602080832090910192909255918252600188019052604090208390555b8554869080611b7457611b74612d8b565b600190038181905f5260205f20015f90559055856001015f8681526020019081526020015f205f9055600193505050506104fb565b5f9150506104fb565b5092915050565b5f803681611bca6014828789612988565b611bd391612a85565b60601c9350611be6603460148789612988565b611bef91612d38565b9250611bfe8560348189612988565b949793965094505050565b60605f5f866001600160a01b0316868686604051611c28929190612d55565b5f6040518083038185875af1925050503d805f8114611c62576040519150601f19603f3d011682016040523d82523d5f602084013e611c67565b606091505b509150915061178d8989848461211f565b365f826020811015611c9d5760405163eb0bcc5d60e01b815260040160405180910390fd5b5f611cab6020828789612988565b611cb491612d38565b9050601f198201811115611cdb5760405163eb0bcc5d60e01b815260040160405180910390fd5b5f611ceb6020830183888a612988565b611cf491612d38565b90506001600160401b03811180611d12575080602002602083850303105b15611d305760405163eb0bcc5d60e01b815260040160405180910390fd5b9501602001959350505050565b5f3681611d4d6014828688612988565b611d5691612a85565b60601c9250611d688460148188612988565b915091509250925092565b60605f5f856001600160a01b03168585604051611d91929190612d55565b5f60405180830381855af49150503d805f8114611dc9576040519150601f19603f3d011682016040523d82523d5f602084013e611dce565b606091505b5091509150611ddf8888848461211f565b98975050505050505050565b365f818185858015611f4a57602960f81b8282611e09600182612d78565b818110611e1857611e18612c75565b9050013560f81c60f81b6001600160f81b03191603611eb9575f5b81811015611eb3575f838383818110611e4e57611e4e612c75565b909101356001600160f81b031916915050601b60fb1b8101611e9657815f03611e775750611eb3565b611e83825f8587612988565b8b8b975097509750975050505050611f59565b611e9f816121c4565b15611eaa5750611eb3565b50600101611e33565b50611f4a565b805b8015611f48575f8383611ecf600185612d78565b818110611ede57611ede612c75565b909101356001600160f81b03191691505060d760f81b8101611f2357611f0683838187612988565b611f12845f8789612988565b975097509750975050505050611f59565b611f2c816121c4565b15611f375750611f48565b50611f4181612d9f565b9050611ebb565b505b5f805f80955095509550955050505b92959194509250565b5f8515611fa457611f7587878787612236565b8383604051602001611f8993929190612db4565b60405160208183030381529060405280519060200120611fa6565b5f5b979650505050505050565b5f5f5f611ff38686868080601f0160208091040260200160405190810160405280939291908181526020018383808284375f9201919091525061226e92505050565b509092509050306001600160a01b03831614801561202157505f81600381111561201f5761201f612dd4565b145b9695505050505050565b5f600c8260ff16111561205157604051631dd4bb1b60e11b815260040160405180910390fd5b506008021b6001600160601b03191690565b5f6104fb61206f6117a6565b83611749565b5f60ff8216601f8111156104fb57604051632cd44ac360e21b815260040160405180910390fd5b82516060906120ab83826122b4565b92506120b784846122b4565b93505f6120c48585612d78565b6001600160401b038111156120db576120db6124b4565b6040519080825280601f01601f191660200182016040528015612105576020820181803683370190505b509050848403602086018701602083015e95945050505050565b606061212b845f610f6c565b156121405761213a83836122c3565b506121bc565b61214e84600160f81b610f6c565b156121975782612192577f2eea2f51f83910481f4b5ba28b7003a6e045d4b59f67dfff8d4c9011940500898583604051612189929190612de8565b60405180910390a15b6121bc565b6040516323a2408560e01b81526001600160f81b03198516600482015260240161042c565b509392505050565b5f6001600160f81b0319821615806121e957506001600160f81b03198216600160fd1b145b8061220157506001600160f81b03198216600b60fa1b145b8061221957506001600160f81b03198216600560fb1b145b806104fb57506001600160f81b03198216602960f81b1492915050565b5f8484848460405160200161224e9493929190612e00565b604051602081830303815290604052805190602001209050949350505050565b5f5f5f83516041036122a5576020840151604085015160608601515f1a612297888285856122df565b9550955095505050506111f1565b505081515f91506002906111f1565b5f8282188284100282186105e9565b6060826122d8576122d3826123a7565b6104fb565b50806104fb565b5f80807f7fffffffffffffffffffffffffffffff5d576e7357a4501ddfe92f46681b20a084111561231857505f9150600390508261239d565b604080515f808252602082018084528a905260ff891692820192909252606081018790526080810186905260019060a0016020604051602081039080840390855afa158015612369573d5f5f3e3d5ffd5b5050604051601f1901519150506001600160a01b03811661239457505f92506001915082905061239d565b92505f91508190505b9450945094915050565b8051156123b75780518082602001fd5b60405163d6bda27560e01b815260040160405180910390fd5b6001600160e01b031981168114610a1f575f5ffd5b5f602082840312156123f5575f5ffd5b81356105e9816123d0565b80356001600160a01b0381168114612416575f5ffd5b919050565b5f5f83601f84011261242b575f5ffd5b5081356001600160401b03811115612441575f5ffd5b602083019150836020828501011115612458575f5ffd5b9250929050565b5f5f5f5f60608587031215612472575f5ffd5b8435935061248260208601612400565b925060408501356001600160401b0381111561249c575f5ffd5b6124a88782880161241b565b95989497509550505050565b634e487b7160e01b5f52604160045260245ffd5b604051601f8201601f191681016001600160401b03811182821017156124f0576124f06124b4565b604052919050565b5f82601f830112612507575f5ffd5b81356001600160401b03811115612520576125206124b4565b612533601f8201601f19166020016124c8565b818152846020838601011115612547575f5ffd5b816020850160208301375f918101602001919091529392505050565b5f5f5f5f60808587031215612576575f5ffd5b61257f85612400565b935061258d60208601612400565b92506040850135915060608501356001600160401b038111156125ae575f5ffd5b6125ba878288016124f8565b91505092959194509250565b5f5f5f604084860312156125d8575f5ffd5b8335925060208401356001600160401b038111156125f4575f5ffd5b6126008682870161241b565b9497909650939450505050565b5f5f5f6060848603121561261f575f5ffd5b83356001600160401b03811115612634575f5ffd5b84016101208187031215612646575f5ffd5b95602085013595506040909401359392505050565b5f6020828403121561266b575f5ffd5b81356001600160c01b03811681146105e9575f5ffd5b5f81518084528060208401602086015e5f602082860101526020601f19601f83011685010191505092915050565b60ff60f81b8816815260e060208201525f6126cd60e0830189612681565b82810360408401526126df8189612681565b606084018890526001600160a01b038716608085015260a0840186905283810360c0850152845180825260208087019350909101905f5b81811015612734578351835260209384019390920191600101612716565b50909b9a5050505050505050505050565b602081525f6105e96020830184612681565b5f82601f830112612766575f5ffd5b81356001600160401b0381111561277f5761277f6124b4565b8060051b61278f602082016124c8565b918252602081850181019290810190868411156127aa575f5ffd5b6020860192505b838310156120215782358252602092830192909101906127b1565b5f5f5f5f5f60a086880312156127e0575f5ffd5b6127e986612400565b94506127f760208701612400565b935060408601356001600160401b03811115612811575f5ffd5b61281d88828901612757565b93505060608601356001600160401b03811115612838575f5ffd5b61284488828901612757565b92505060808601356001600160401b0381111561285f575f5ffd5b61286b888289016124f8565b9150509295509295909350565b5f60208284031215612888575f5ffd5b5035919050565b5f602082016020835280845180835260408501915060408160051b8601019250602086015f5b828110156128e657603f198786030184526128d1858351612681565b945060209384019391909101906001016128b5565b50929695505050505050565b5f5f5f5f5f60a08688031215612906575f5ffd5b61290f86612400565b945061291d60208701612400565b9350604086013592506060860135915060808601356001600160401b0381111561285f575f5ffd5b8284823760609190911b6001600160601b0319169101908152601401919050565b5f81518060208401855e5f93019283525090919050565b5f6105e98284612966565b5f5f85851115612996575f5ffd5b838611156129a2575f5ffd5b5050820193919092039150565b80356001600160e01b03198116906004841015611bb2576001600160e01b031960049490940360031b84901b1690921692915050565b5f602082840312156129f5575f5ffd5b5051919050565b81835281816020850137505f828201602090810191909152601f909101601f19169091010190565b60018060a01b0385168152836020820152606060408201525f6120216060830184866129fc565b5f60208284031215612a5b575f5ffd5b81516105e9816123d0565b5f60208284031215612a76575f5ffd5b815180151581146105e9575f5ffd5b80356001600160601b03198116906014841015611bb2576001600160601b031960149490940360031b84901b1690921692915050565b5f5f8335601e19843603018112612ad0575f5ffd5b83016020810192503590506001600160401b03811115612aee575f5ffd5b803603821315612458575f5ffd5b60408152612b1d60408201612b1085612400565b6001600160a01b03169052565b602083013560608201525f612b356040850185612abb565b6101206080850152612b4c610160850182846129fc565b915050612b5c6060860186612abb565b848303603f190160a0860152612b738382846129fc565b608088013560c08781019190915260a089013560e08089019190915290890135610100880152909350612bab92508701905086612abb565b848303603f1901610120860152612bc38382846129fc565b92505050612bd5610100860186612abb565b848303603f1901610140860152612bed8382846129fc565b93505050508260208301529392505050565b600181811c90821680612c1357607f821691505b602082108103612c3157634e487b7160e01b5f52602260045260245ffd5b50919050565b805160208201516001600160e01b0319811691906004821015612c6e576001600160e01b0319600483900360031b81901b82161692505b5050919050565b634e487b7160e01b5f52603260045260245ffd5b5f8235605e19833603018112612c9d575f5ffd5b9190910192915050565b5f60208284031215612cb7575f5ffd5b6105e982612400565b5f5f8335601e19843603018112612cd5575f5ffd5b8301803591506001600160401b03821115612cee575f5ffd5b602001915036819003821315612458575f5ffd5b80356001600160f01b03198116906002841015611bb2576001600160f01b031960029490940360031b84901b1690921692915050565b803560208310156104fb575f19602084900360031b1b1692915050565b818382375f9101908152919050565b634e487b7160e01b5f52601160045260245ffd5b818103818111156104fb576104fb612d64565b634e487b7160e01b5f52603160045260245ffd5b5f81612dad57612dad612d64565b505f190190565b8381528260208201525f612dcb6040830184612966565b95945050505050565b634e487b7160e01b5f52602160045260245ffd5b828152604060208201525f6105ac6040830184612681565b6d0a8f2e0cac888c2e8c2a6d2cedc560931b81528385600e8301375f8482017f20636f6e74656e74732c737472696e67206e616d652c737472696e6720766572600e8201527f73696f6e2c75696e7432353620636861696e49642c6164647265737320766572602e8201527f696679696e67436f6e74726163742c627974657333322073616c742900000000604e8201528385606a8301375f9301606a01928352509094935050505056fe406f70656e7a657070656c696e2f636f6d6d756e6974792d636f6e7472616374732e4163636f756e74455243373537392e76302e302e30a264697066735822122094ff3f1a962d614e6ad81ed6843afb5985f374b36bad2305f5f5c4094eb3ebab64736f6c634300081c0033",
  "devdoc": {
    "errors": {
      "AccountUnauthorized(address)": [
        {
          "details": "Unauthorized call to the account."
        }
      ],
      "ERC7579AlreadyInstalledModule(uint256,address)": [
        {
          "details": "The module is already installed."
        }
      ],
      "ERC7579DecodingError()": [
        {
          "details": "Input calldata not properly formatted and possibly malicious."
        }
      ],
      "ERC7579MismatchedModuleTypeId(uint256,address)": [
        {
          "details": "The provided module doesn't match the provided module type."
        }
      ],
      "ERC7579MissingFallbackHandler(bytes4)": [
        {
          "details": "The account's {fallback} was called with a selector that doesn't have an installed handler."
        }
      ],
      "ERC7579UninstalledModule(uint256,address)": [
        {
          "details": "The module is not installed."
        }
      ],
      "ERC7579UnsupportedCallType(bytes1)": [
        {
          "details": "The provided {CallType} is not supported."
        }
      ],
      "ERC7579UnsupportedExecType(bytes1)": [
        {
          "details": "The provided {ExecType} is not supported."
        }
      ],
      "ERC7579UnsupportedModuleType(uint256)": [
        {
          "details": "The module type is not supported."
        }
      ],
      "FailedCall()": [
        {
          "details": "A call to an address target failed. The target may have reverted."
        }
      ]
    },
    "events": {
      "EIP712DomainChanged()": {
        "details": "MAY be emitted to signal that the domain could have changed."
      },
      "ERC7579TryExecuteFail(uint256,bytes)": {
        "details": "Emits when an {EXECTYPE_TRY} execution fails.",
        "params": {
          "batchExecutionIndex": "The index of the failed call in the execution batch.",
          "returndata": "The returned data from the failed call."
        }
      }
    },
    "kind": "dev",
    "methods": {
      "accountId()": {
        "details": "Returns the account id of the smart account",
        "returns": {
          "_0": "the account id of the smart account MUST return a non-empty string The accountId SHOULD be structured like so:        \"vendorname.accountname.semver\" The id SHOULD be unique across all smart accounts"
        }
      },
      "eip712Domain()": {
        "details": "returns the fields and values that describe the domain separator used by this contract for EIP-712 signature."
      },
      "entryPoint()": {
        "details": "Canonical entry point for the account that forwards and validates user operations."
      },
      "execute(bytes32,bytes)": {
        "details": "Executes a transaction on behalf of the account.",
        "params": {
          "executionCalldata": "The encoded execution call data MUST ensure adequate authorization control: e.g. onlyEntryPointOrSelf if used with ERC-4337 If a mode is requested that is not supported by the Account, it MUST revert",
          "mode": "The encoded execution mode of the transaction. See ModeLib.sol for details"
        }
      },
      "executeFromExecutor(bytes32,bytes)": {
        "details": "Executes a transaction on behalf of the account.         This function is intended to be called by Executor Modules",
        "params": {
          "executionCalldata": "The encoded execution call data",
          "mode": "The encoded execution mode of the transaction. See ModeLib.sol for details"
        },
        "returns": {
          "returnData": "An array with the returned data of each executed subcall MUST ensure adequate authorization control: i.e. onlyExecutorModule If a mode is requested that is not supported by the Account, it MUST revert"
        }
      },
      "getNonce()": {
        "details": "Return the account nonce for the canonical sequence."
      },
      "getNonce(uint192)": {
        "details": "Return the account nonce for a given sequence (key)."
      },
      "installModule(uint256,address,bytes)": {
        "details": "Installs a Module of a certain type on the smart account",
        "params": {
          "initData": "arbitrary data that may be required on the module during `onInstall` initialization. MUST implement authorization control MUST call `onInstall` on the module with the `initData` parameter if provided MUST emit ModuleInstalled event MUST revert if the module is already installed or the initialization on the module failed",
          "module": "the module address",
          "moduleTypeId": "the module type ID according to the ERC-7579 spec"
        }
      },
      "isModuleInstalled(uint256,address,bytes)": {
        "details": "Returns whether a module is installed on the smart account",
        "params": {
          "additionalContext": "arbitrary data that may be required to determine if the module is installed MUST return true if the module is installed and false otherwise",
          "module": "the module address",
          "moduleTypeId": "the module type ID according the ERC-7579 spec"
        }
      },
      "isValidSignature(bytes32,bytes)": {
        "details": "Resolve implementation of ERC-1271 by both ERC7739 and AccountERC7579 to support both schemes."
      },
      "onERC721Received(address,address,uint256,bytes)": {
        "details": "See {IERC721Receiver-onERC721Received}. Always returns `IERC721Receiver.onERC721Received.selector`."
      },
      "supportsExecutionMode(bytes32)": {
        "details": "Supported call types: * Single (`0x00`): A single transaction execution. * Batch (`0x01`): A batch of transactions execution. * Delegate (`0xff`): A delegate call execution. Supported exec types: * Default (`0x00`): Default execution type (revert on failure). * Try (`0x01`): Try execution type (emits ERC7579TryExecuteFail on failure).",
        "params": {
          "encodedMode": "the encoded mode MUST return true if the account supports the mode and false otherwise"
        }
      },
      "supportsInterface(bytes4)": {
        "details": "See {IERC165-supportsInterface}."
      },
      "supportsModule(uint256)": {
        "details": "Supported module types: * Validator: A module used during the validation phase to determine if a transaction is valid and should be executed on the account. * Executor: A module that can execute transactions on behalf of the smart account via a callback. * Fallback Handler: A module that can extend the fallback functionality of a smart account.",
        "params": {
          "moduleTypeId": "the module type ID according to the ERC-7579 spec MUST return true if the account supports the module type and false otherwise"
        }
      },
      "uninstallModule(uint256,address,bytes)": {
        "details": "Uninstalls a Module of a certain type on the smart account",
        "params": {
          "deInitData": "arbitrary data that may be required on the module during `onInstall` initialization. MUST implement authorization control MUST call `onUninstall` on the module with the `deInitData` parameter if provided MUST emit ModuleUninstalled event MUST revert if the module is not installed or the deInitialization on the module failed",
          "module": "the module address",
          "moduleTypeId": "the module type ID according the ERC-7579 spec"
        }
      },
      "validateUserOp((address,uint256,bytes,bytes,bytes32,uint256,bytes32,bytes,bytes),bytes32,uint256)": {
        "details": "Validates a user operation. * MUST validate the caller is a trusted EntryPoint * MUST validate that the signature is a valid signature of the userOpHash, and SHOULD   return SIG_VALIDATION_FAILED (and not revert) on signature mismatch. Any other error MUST revert. * MUST pay the entryPoint (caller) at least the missingAccountFunds (which might   be zero, in case the current accounts deposit is high enough) Returns an encoded packed validation data that is composed of the following elements: - `authorizer` (`address`): 0 for success, 1 for failure, otherwise the address of an authorizer contract - `validUntil` (`uint48`): The UserOp is valid only up to this time. Zero for infinite. - `validAfter` (`uint48`): The UserOp is valid only after this time."
      }
    },
    "version": 1
  },
  "userdoc": {
    "kind": "user",
    "methods": {},
    "version": 1
  },
  "storageLayout": {
    "storage": [
      {
        "astId": 11288,
        "contract": "contracts/ModularAccount.sol:ModularAccount",
        "label": "_nameFallback",
        "offset": 0,
        "slot": "0",
        "type": "t_string_storage"
      },
      {
        "astId": 11290,
        "contract": "contracts/ModularAccount.sol:ModularAccount",
        "label": "_versionFallback",
        "offset": 0,
        "slot": "1",
        "type": "t_string_storage"
      },
      {
        "astId": 354,
        "contract": "contracts/ModularAccount.sol:ModularAccount",
        "label": "_validators",
        "offset": 0,
        "slot": "2",
        "type": "t_struct(AddressSet)15622_storage"
      },
      {
        "astId": 357,
        "contract": "contracts/ModularAccount.sol:ModularAccount",
        "label": "_executors",
        "offset": 0,
        "slot": "4",
        "type": "t_struct(AddressSet)15622_storage"
      },
      {
        "astId": 361,
        "contract": "contracts/ModularAccount.sol:ModularAccount",
        "label": "_fallbacks",
        "offset": 0,
        "slot": "6",
        "type": "t_mapping(t_bytes4,t_address)"
      }
    ],
    "types": {
      "t_address": {
        "encoding": "inplace",
        "label": "address",
        "numberOfBytes": "20"
      },
      "t_array(t_bytes32)dyn_storage": {
        "base": "t_bytes32",
        "encoding": "dynamic_array",
        "label": "bytes32[]",
        "numberOfBytes": "32"
      },
      "t_bytes32": {
        "encoding": "inplace",
        "label": "bytes32",
        "numberOfBytes": "32"
      },
      "t_bytes4": {
        "encoding": "inplace",
        "label": "bytes4",
        "numberOfBytes": "4"
      },
      "t_mapping(t_bytes32,t_uint256)": {
        "encoding": "mapping",
        "key": "t_bytes32",
        "label": "mapping(bytes32 => uint256)",
        "numberOfBytes": "32",
        "value": "t_uint256"
      },
      "t_mapping(t_bytes4,t_address)": {
        "encoding": "mapping",
        "key": "t_bytes4",
        "label": "mapping(bytes4 => address)",
        "numberOfBytes": "32",
        "value": "t_address"
      },
      "t_string_storage": {
        "encoding": "bytes",
        "label": "string",
        "numberOfBytes": "32"
      },
      "t_struct(AddressSet)15622_storage": {
        "encoding": "inplace",
        "label": "struct EnumerableSet.AddressSet",
        "members": [
          {
            "astId": 15621,
            "contract": "contracts/ModularAccount.sol:ModularAccount",
            "label": "_inner",
            "offset": 0,
            "slot": "0",
            "type": "t_struct(Set)15251_storage"
          }
        ],
        "numberOfBytes": "64"
      },
      "t_struct(Set)15251_storage": {
        "encoding": "inplace",
        "label": "struct EnumerableSet.Set",
        "members": [
          {
            "astId": 15246,
            "contract": "contracts/ModularAccount.sol:ModularAccount",
            "label": "_values",
            "offset": 0,
            "slot": "0",
            "type": "t_array(t_bytes32)dyn_storage"
          },
          {
            "astId": 15250,
            "contract": "contracts/ModularAccount.sol:ModularAccount",
            "label": "_positions",
            "offset": 0,
            "slot": "1",
            "type": "t_mapping(t_bytes32,t_uint256)"
          }
        ],
        "numberOfBytes": "64"
      },
      "t_uint256": {
        "encoding": "inplace",
        "label": "uint256",
        "numberOfBytes": "32"
      }
    }
  }
}